{
  "contractName": "BntyExchangeRateCalculator",
  "abi": [
    {
      "constant": true,
      "inputs": [],
      "name": "USDEtherPrice",
      "outputs": [
        {
          "name": "",
          "type": "uint256"
        }
      ],
      "payable": false,
      "stateMutability": "view",
      "type": "function"
    },
    {
      "constant": true,
      "inputs": [
        {
          "name": "amtWei",
          "type": "uint256"
        }
      ],
      "name": "weiToBnty",
      "outputs": [
        {
          "name": "",
          "type": "uint256"
        }
      ],
      "payable": false,
      "stateMutability": "view",
      "type": "function"
    },
    {
      "constant": true,
      "inputs": [],
      "name": "fixUSDPriceTime",
      "outputs": [
        {
          "name": "",
          "type": "uint256"
        }
      ],
      "payable": false,
      "stateMutability": "view",
      "type": "function"
    },
    {
      "constant": true,
      "inputs": [],
      "name": "MICRODOLLARS_PER_DOLLAR",
      "outputs": [
        {
          "name": "",
          "type": "uint256"
        }
      ],
      "payable": false,
      "stateMutability": "view",
      "type": "function"
    },
    {
      "constant": true,
      "inputs": [],
      "name": "WEI_PER_ETH",
      "outputs": [
        {
          "name": "",
          "type": "uint256"
        }
      ],
      "payable": false,
      "stateMutability": "view",
      "type": "function"
    },
    {
      "constant": true,
      "inputs": [],
      "name": "owner",
      "outputs": [
        {
          "name": "",
          "type": "address"
        }
      ],
      "payable": false,
      "stateMutability": "view",
      "type": "function"
    },
    {
      "constant": true,
      "inputs": [
        {
          "name": "usd",
          "type": "uint256"
        }
      ],
      "name": "usdToWei",
      "outputs": [
        {
          "name": "",
          "type": "uint256"
        }
      ],
      "payable": false,
      "stateMutability": "view",
      "type": "function"
    },
    {
      "constant": true,
      "inputs": [],
      "name": "bntyMicrodollarPrice",
      "outputs": [
        {
          "name": "",
          "type": "uint256"
        }
      ],
      "payable": false,
      "stateMutability": "view",
      "type": "function"
    },
    {
      "constant": true,
      "inputs": [],
      "name": "currentTime",
      "outputs": [
        {
          "name": "",
          "type": "uint256"
        }
      ],
      "payable": false,
      "stateMutability": "view",
      "type": "function"
    },
    {
      "constant": false,
      "inputs": [
        {
          "name": "_USDEtherPrice",
          "type": "uint256"
        }
      ],
      "name": "setUSDEtherPrice",
      "outputs": [],
      "payable": false,
      "stateMutability": "nonpayable",
      "type": "function"
    },
    {
      "constant": false,
      "inputs": [
        {
          "name": "newOwner",
          "type": "address"
        }
      ],
      "name": "transferOwnership",
      "outputs": [],
      "payable": false,
      "stateMutability": "nonpayable",
      "type": "function"
    },
    {
      "inputs": [
        {
          "name": "_bntyMicrodollarPrice",
          "type": "uint256"
        },
        {
          "name": "_USDEtherPrice",
          "type": "uint256"
        },
        {
          "name": "_fixUSDPriceTime",
          "type": "uint256"
        }
      ],
      "payable": false,
      "stateMutability": "nonpayable",
      "type": "constructor"
    },
    {
      "anonymous": false,
      "inputs": [
        {
          "indexed": true,
          "name": "previousOwner",
          "type": "address"
        },
        {
          "indexed": true,
          "name": "newOwner",
          "type": "address"
        }
      ],
      "name": "OwnershipTransferred",
      "type": "event"
    }
  ],
  "bytecode": "0x6060604052341561000f57600080fd5b6040516060806106be83398101604052808051906020019091908051906020019091908051906020019091905050336000806101000a81548173ffffffffffffffffffffffffffffffffffffffff021916908373ffffffffffffffffffffffffffffffffffffffff16021790555060008311151561008c57600080fd5b60008211151561009b57600080fd5b8260018190555080600381905550816002819055505050506105fc806100c26000396000f3006060604052600436106100af576000357c0100000000000000000000000000000000000000000000000000000000900463ffffffff1680630563bbf6146100b45780632f1a8177146100dd57806356639a8e146101145780636fa65c4f1461013d57806374ffdcd0146101665780638da5cb5b1461018f578063a6a86130146101e4578063b8d415c91461021b578063d18e81b314610244578063e79fb53c1461026d578063f2fde38b14610290575b600080fd5b34156100bf57600080fd5b6100c76102c9565b6040518082815260200191505060405180910390f35b34156100e857600080fd5b6100fe60048080359060200190919050506102cf565b6040518082815260200191505060405180910390f35b341561011f57600080fd5b610127610316565b6040518082815260200191505060405180910390f35b341561014857600080fd5b61015061031c565b6040518082815260200191505060405180910390f35b341561017157600080fd5b610179610323565b6040518082815260200191505060405180910390f35b341561019a57600080fd5b6101a261032f565b604051808273ffffffffffffffffffffffffffffffffffffffff1673ffffffffffffffffffffffffffffffffffffffff16815260200191505060405180910390f35b34156101ef57600080fd5b6102056004808035906020019091905050610354565b6040518082815260200191505060405180910390f35b341561022657600080fd5b61022e61038c565b6040518082815260200191505060405180910390f35b341561024f57600080fd5b610257610392565b6040518082815260200191505060405180910390f35b341561027857600080fd5b61028e600480803590602001909190505061039a565b005b341561029b57600080fd5b6102c7600480803573ffffffffffffffffffffffffffffffffffffffff16906020019091905050610425565b005b60025481565b600061030f600154610301846102f3620f424060025461057a90919063ffffffff16565b61057a90919063ffffffff16565b6105b590919063ffffffff16565b9050919050565b60035481565b620f424081565b670de0b6b3a764000081565b6000809054906101000a900473ffffffffffffffffffffffffffffffffffffffff1681565b600061038560025461037784670de0b6b3a764000061057a90919063ffffffff16565b6105b590919063ffffffff16565b9050919050565b60015481565b600042905090565b6000809054906101000a900473ffffffffffffffffffffffffffffffffffffffff1673ffffffffffffffffffffffffffffffffffffffff163373ffffffffffffffffffffffffffffffffffffffff161415156103f557600080fd5b600354610400610392565b10151561040c57600080fd5b60008111151561041b57600080fd5b8060028190555050565b6000809054906101000a900473ffffffffffffffffffffffffffffffffffffffff1673ffffffffffffffffffffffffffffffffffffffff163373ffffffffffffffffffffffffffffffffffffffff1614151561048057600080fd5b600073ffffffffffffffffffffffffffffffffffffffff168173ffffffffffffffffffffffffffffffffffffffff16141515156104bc57600080fd5b8073ffffffffffffffffffffffffffffffffffffffff166000809054906101000a900473ffffffffffffffffffffffffffffffffffffffff1673ffffffffffffffffffffffffffffffffffffffff167f8be0079c531659141344cd1fd0a4f28419497f9722a3daafe3b4186f6b6457e060405160405180910390a3806000806101000a81548173ffffffffffffffffffffffffffffffffffffffff021916908373ffffffffffffffffffffffffffffffffffffffff16021790555050565b600080600084141561058f57600091506105ae565b82840290508284828115156105a057fe5b041415156105aa57fe5b8091505b5092915050565b60008082848115156105c357fe5b04905080915050929150505600a165627a7a72305820e49815e2d56e3b36847af1cd3ce700e92b742abf6d2b1af03dcfb4d9947f80560029",
  "source": "pragma solidity ^0.4.18;\n\nimport 'zeppelin-solidity/contracts/math/SafeMath.sol';\nimport 'zeppelin-solidity/contracts/ownership/Ownable.sol';\nimport './KnowsTime.sol';\n\n\n// This contract does the math to figure out the BNTY paid per WEI, based on the USD ether price\ncontract BntyExchangeRateCalculator is KnowsTime, Ownable {\n    using SafeMath for uint;\n\n    uint public constant WEI_PER_ETH = 10 ** 18;\n\n    uint public constant MICRODOLLARS_PER_DOLLAR = 10 ** 6;\n\n    uint public bntyMicrodollarPrice;\n\n    uint public USDEtherPrice;\n\n    uint public fixUSDPriceTime;\n\n    // a microdollar is one millionth of a dollar, or one ten-thousandth of a cent\n    function BntyExchangeRateCalculator(uint _bntyMicrodollarPrice, uint _USDEtherPrice, uint _fixUSDPriceTime)\n        public\n    {\n        require(_bntyMicrodollarPrice > 0);\n        require(_USDEtherPrice > 0);\n\n        bntyMicrodollarPrice = _bntyMicrodollarPrice;\n        fixUSDPriceTime = _fixUSDPriceTime;\n        USDEtherPrice = _USDEtherPrice;\n    }\n\n    // the owner can change the usd ether price\n    function setUSDEtherPrice(uint _USDEtherPrice) onlyOwner public {\n        require(currentTime() < fixUSDPriceTime);\n        require(_USDEtherPrice > 0);\n\n        USDEtherPrice = _USDEtherPrice;\n    }\n\n    // returns the number of wei some amount of usd\n    function usdToWei(uint usd) view public returns (uint) {\n        return WEI_PER_ETH.mul(usd).div(USDEtherPrice);\n    }\n\n    // returns the number of bnty per some amount in wei\n    function weiToBnty(uint amtWei) view public returns (uint) {\n        return USDEtherPrice.mul(MICRODOLLARS_PER_DOLLAR).mul(amtWei).div(bntyMicrodollarPrice);\n    }\n}\n",
  "sourcePath": "/Users/denizdalkilic/Documents/Blockchain/Bounty0x/Bounty0xTokenSale/contracts/BntyExchangeRateCalculator.sol",
  "compiler": {
    "name": "solc",
    "version": "0.4.18+commit.9cf6e910.Emscripten.clang"
  },
  "schemaVersion": "1.0.1",
  "updatedAt": "2017-12-15T09:52:09.192Z"
}