{
  "contractName": "Bounty0xReserveHolder",
  "abi": [
    {
      "constant": true,
      "inputs": [],
      "name": "HARD_CAP_USD",
      "outputs": [
        {
          "name": "",
          "type": "uint256"
        }
      ],
      "payable": false,
      "stateMutability": "view",
      "type": "function"
    },
    {
      "constant": true,
      "inputs": [],
      "name": "MAXIMUM_CONTRIBUTION_WHITELIST_PERIOD_USD",
      "outputs": [
        {
          "name": "",
          "type": "uint256"
        }
      ],
      "payable": false,
      "stateMutability": "view",
      "type": "function"
    },
    {
      "constant": true,
      "inputs": [],
      "name": "MICRO_DOLLARS_PER_BNTY_PRESALE",
      "outputs": [
        {
          "name": "",
          "type": "uint256"
        }
      ],
      "payable": false,
      "stateMutability": "view",
      "type": "function"
    },
    {
      "constant": true,
      "inputs": [],
      "name": "SALE_END_DATE",
      "outputs": [
        {
          "name": "",
          "type": "uint256"
        }
      ],
      "payable": false,
      "stateMutability": "view",
      "type": "function"
    },
    {
      "constant": true,
      "inputs": [],
      "name": "beneficiary",
      "outputs": [
        {
          "name": "",
          "type": "address"
        }
      ],
      "payable": false,
      "stateMutability": "view",
      "type": "function"
    },
    {
      "constant": true,
      "inputs": [],
      "name": "LIMITS_END_DATE",
      "outputs": [
        {
          "name": "",
          "type": "uint256"
        }
      ],
      "payable": false,
      "stateMutability": "view",
      "type": "function"
    },
    {
      "constant": true,
      "inputs": [],
      "name": "UNFREEZE_DATE",
      "outputs": [
        {
          "name": "",
          "type": "uint256"
        }
      ],
      "payable": false,
      "stateMutability": "view",
      "type": "function"
    },
    {
      "constant": true,
      "inputs": [],
      "name": "SALE_START_DATE",
      "outputs": [
        {
          "name": "",
          "type": "uint256"
        }
      ],
      "payable": false,
      "stateMutability": "view",
      "type": "function"
    },
    {
      "constant": true,
      "inputs": [],
      "name": "MAX_GAS",
      "outputs": [
        {
          "name": "",
          "type": "uint256"
        }
      ],
      "payable": false,
      "stateMutability": "view",
      "type": "function"
    },
    {
      "constant": true,
      "inputs": [],
      "name": "WHITELIST_END_DATE",
      "outputs": [
        {
          "name": "",
          "type": "uint256"
        }
      ],
      "payable": false,
      "stateMutability": "view",
      "type": "function"
    },
    {
      "constant": false,
      "inputs": [],
      "name": "release",
      "outputs": [],
      "payable": false,
      "stateMutability": "nonpayable",
      "type": "function"
    },
    {
      "constant": true,
      "inputs": [],
      "name": "MAXIMUM_CONTRIBUTION_LIMITED_PERIOD_USD",
      "outputs": [
        {
          "name": "",
          "type": "uint256"
        }
      ],
      "payable": false,
      "stateMutability": "view",
      "type": "function"
    },
    {
      "constant": true,
      "inputs": [],
      "name": "FIXED_PRESALE_USD_ETHER_PRICE",
      "outputs": [
        {
          "name": "",
          "type": "uint256"
        }
      ],
      "payable": false,
      "stateMutability": "view",
      "type": "function"
    },
    {
      "constant": true,
      "inputs": [],
      "name": "MICRO_DOLLARS_PER_BNTY_MAINSALE",
      "outputs": [
        {
          "name": "",
          "type": "uint256"
        }
      ],
      "payable": false,
      "stateMutability": "view",
      "type": "function"
    },
    {
      "constant": true,
      "inputs": [],
      "name": "currentTime",
      "outputs": [
        {
          "name": "",
          "type": "uint256"
        }
      ],
      "payable": false,
      "stateMutability": "view",
      "type": "function"
    },
    {
      "constant": true,
      "inputs": [],
      "name": "MAX_GAS_PRICE",
      "outputs": [
        {
          "name": "",
          "type": "uint256"
        }
      ],
      "payable": false,
      "stateMutability": "view",
      "type": "function"
    },
    {
      "constant": true,
      "inputs": [],
      "name": "token",
      "outputs": [
        {
          "name": "",
          "type": "address"
        }
      ],
      "payable": false,
      "stateMutability": "view",
      "type": "function"
    },
    {
      "inputs": [
        {
          "name": "_token",
          "type": "address"
        },
        {
          "name": "_beneficiary",
          "type": "address"
        }
      ],
      "payable": false,
      "stateMutability": "nonpayable",
      "type": "constructor"
    }
  ],
  "bytecode": "0x6060604052341561000f57600080fd5b60405160408061084b83398101604052808051906020019091908051906020019091905050600073ffffffffffffffffffffffffffffffffffffffff168273ffffffffffffffffffffffffffffffffffffffff161415151561007057600080fd5b600073ffffffffffffffffffffffffffffffffffffffff168173ffffffffffffffffffffffffffffffffffffffff16141515156100ac57600080fd5b816000806101000a81548173ffffffffffffffffffffffffffffffffffffffff021916908373ffffffffffffffffffffffffffffffffffffffff16021790555080600160006101000a81548173ffffffffffffffffffffffffffffffffffffffff021916908373ffffffffffffffffffffffffffffffffffffffff160217905550505061070d8061013e6000396000f3006060604052600436106100f1576000357c0100000000000000000000000000000000000000000000000000000000900463ffffffff168063137ce8e3146100f6578063180773de1461011f578063219a6ead1461014857806327d741df1461017157806338af3eed1461019a5780634e22102b146101ef5780634f27174014610218578063547c1b6a146102415780635f2a9f411461026a5780636855ded31461029357806386d1a69f146102bc5780638704c6ac146102d1578063a58079fc146102fa578063ccb61dad14610323578063d18e81b31461034c578063e3bbb4f114610375578063fc0c546a1461039e575b600080fd5b341561010157600080fd5b6101096103f3565b6040518082815260200191505060405180910390f35b341561012a57600080fd5b6101326103fa565b6040518082815260200191505060405180910390f35b341561015357600080fd5b61015b610400565b6040518082815260200191505060405180910390f35b341561017c57600080fd5b610184610406565b6040518082815260200191505060405180910390f35b34156101a557600080fd5b6101ad610413565b604051808273ffffffffffffffffffffffffffffffffffffffff1673ffffffffffffffffffffffffffffffffffffffff16815260200191505060405180910390f35b34156101fa57600080fd5b610202610439565b6040518082815260200191505060405180910390f35b341561022357600080fd5b61022b610446565b6040518082815260200191505060405180910390f35b341561024c57600080fd5b610254610454565b6040518082815260200191505060405180910390f35b341561027557600080fd5b61027d61045c565b6040518082815260200191505060405180910390f35b341561029e57600080fd5b6102a6610463565b6040518082815260200191505060405180910390f35b34156102c757600080fd5b6102cf610470565b005b34156102dc57600080fd5b6102e4610699565b6040518082815260200191505060405180910390f35b341561030557600080fd5b61030d61069f565b6040518082815260200191505060405180910390f35b341561032e57600080fd5b6103366106a5565b6040518082815260200191505060405180910390f35b341561035757600080fd5b61035f6106ab565b6040518082815260200191505060405180910390f35b341561038057600080fd5b6103886106b3565b6040518082815260200191505060405180910390f35b34156103a957600080fd5b6103b16106bc565b604051808273ffffffffffffffffffffffffffffffffffffffff1673ffffffffffffffffffffffffffffffffffffffff16815260200191505060405180910390f35b6216e36081565b6105dc81565b61339081565b6224ea00635a33d5600181565b600160009054906101000a900473ffffffffffffffffffffffffffffffffffffffff1681565b6202a300635a33d5600181565b6302bd5e00635a33d5600181565b635a33d56081565b6207a12081565b62015180635a33d5600181565b60006302bd5e00635a33d560016104856106ab565b1015151561049257600080fd5b6000809054906101000a900473ffffffffffffffffffffffffffffffffffffffff1673ffffffffffffffffffffffffffffffffffffffff166370a08231306000604051602001526040518263ffffffff167c0100000000000000000000000000000000000000000000000000000000028152600401808273ffffffffffffffffffffffffffffffffffffffff1673ffffffffffffffffffffffffffffffffffffffff168152602001915050602060405180830381600087803b151561055657600080fd5b6102c65a03f1151561056757600080fd5b50505060405180519050905060008111151561058257600080fd5b6000809054906101000a900473ffffffffffffffffffffffffffffffffffffffff1673ffffffffffffffffffffffffffffffffffffffff1663a9059cbb600160009054906101000a900473ffffffffffffffffffffffffffffffffffffffff16836000604051602001526040518363ffffffff167c0100000000000000000000000000000000000000000000000000000000028152600401808373ffffffffffffffffffffffffffffffffffffffff1673ffffffffffffffffffffffffffffffffffffffff16815260200182815260200192505050602060405180830381600087803b151561067057600080fd5b6102c65a03f1151561068157600080fd5b50505060405180519050151561069657600080fd5b50565b61271081565b61016381565b61407481565b600042905090565b64104c533c0081565b6000809054906101000a900473ffffffffffffffffffffffffffffffffffffffff16815600a165627a7a723058200de7e2d4ae0ccd7267c861d7a1697c05d62753c4e3b53ca1bda5e62c0b78f7620029",
  "source": "pragma solidity ^0.4.18;\n\nimport './KnowsConstants.sol';\nimport './Bounty0xToken.sol';\nimport './KnowsTime.sol';\n\n/**\n * @title Bounty0xReserveHolder\n * @dev Bounty0xReserveHolder is a token holder contract that will allow a\n * beneficiary to extract the tokens after a given release time\n */\ncontract Bounty0xReserveHolder is KnowsConstants, KnowsTime {\n    // Bounty0xToken address\n    Bounty0xToken public token;\n\n    // beneficiary of tokens after they are released\n    address public beneficiary;\n\n    function Bounty0xReserveHolder(Bounty0xToken _token, address _beneficiary) public {\n        require(_token != address(0));\n        require(_beneficiary != address(0));\n\n        token = _token;\n        beneficiary = _beneficiary;\n    }\n\n    /**\n     * @notice Transfers tokens held by timelock to beneficiary.\n     */\n    function release() public {\n        require(currentTime() >= UNFREEZE_DATE);\n\n        uint amount = token.balanceOf(this);\n        require(amount > 0);\n\n        require(token.transfer(beneficiary, amount));\n    }\n}\n",
  "sourcePath": "/Users/denizdalkilic/Documents/Blockchain/Bounty0x/Bounty0xTokenSale/contracts/Bounty0xReserveHolder.sol",
  "compiler": {
    "name": "solc",
    "version": "0.4.18+commit.9cf6e910.Emscripten.clang"
  },
  "schemaVersion": "1.0.1",
  "updatedAt": "2017-12-15T11:37:50.150Z"
}