{
  "contractName": "Bounty0xCrowdsale",
  "abi": [
    {
      "constant": true,
      "inputs": [],
      "name": "USDEtherPrice",
      "outputs": [
        {
          "name": "",
          "type": "uint256"
        }
      ],
      "payable": false,
      "stateMutability": "view",
      "type": "function"
    },
    {
      "constant": true,
      "inputs": [],
      "name": "HARD_CAP_USD",
      "outputs": [
        {
          "name": "",
          "type": "uint256"
        }
      ],
      "payable": false,
      "stateMutability": "view",
      "type": "function"
    },
    {
      "constant": true,
      "inputs": [],
      "name": "MAXIMUM_CONTRIBUTION_WHITELIST_PERIOD_USD",
      "outputs": [
        {
          "name": "",
          "type": "uint256"
        }
      ],
      "payable": false,
      "stateMutability": "view",
      "type": "function"
    },
    {
      "constant": true,
      "inputs": [],
      "name": "MICRO_DOLLARS_PER_BNTY_PRESALE",
      "outputs": [
        {
          "name": "",
          "type": "uint256"
        }
      ],
      "payable": false,
      "stateMutability": "view",
      "type": "function"
    },
    {
      "constant": true,
      "inputs": [],
      "name": "SALE_END_DATE",
      "outputs": [
        {
          "name": "",
          "type": "uint256"
        }
      ],
      "payable": false,
      "stateMutability": "view",
      "type": "function"
    },
    {
      "constant": false,
      "inputs": [
        {
          "name": "amount",
          "type": "uint256"
        }
      ],
      "name": "withdraw",
      "outputs": [],
      "payable": false,
      "stateMutability": "nonpayable",
      "type": "function"
    },
    {
      "constant": true,
      "inputs": [
        {
          "name": "amtWei",
          "type": "uint256"
        }
      ],
      "name": "weiToBnty",
      "outputs": [
        {
          "name": "",
          "type": "uint256"
        }
      ],
      "payable": false,
      "stateMutability": "view",
      "type": "function"
    },
    {
      "constant": true,
      "inputs": [],
      "name": "totalContributions",
      "outputs": [
        {
          "name": "",
          "type": "uint256"
        }
      ],
      "payable": false,
      "stateMutability": "view",
      "type": "function"
    },
    {
      "constant": true,
      "inputs": [
        {
          "name": "addr",
          "type": "address"
        }
      ],
      "name": "isWhitelisted",
      "outputs": [
        {
          "name": "",
          "type": "bool"
        }
      ],
      "payable": false,
      "stateMutability": "view",
      "type": "function"
    },
    {
      "constant": false,
      "inputs": [],
      "name": "unpause",
      "outputs": [],
      "payable": false,
      "stateMutability": "nonpayable",
      "type": "function"
    },
    {
      "constant": true,
      "inputs": [],
      "name": "LIMITS_END_DATE",
      "outputs": [
        {
          "name": "",
          "type": "uint256"
        }
      ],
      "payable": false,
      "stateMutability": "view",
      "type": "function"
    },
    {
      "constant": true,
      "inputs": [],
      "name": "UNFREEZE_DATE",
      "outputs": [
        {
          "name": "",
          "type": "uint256"
        }
      ],
      "payable": false,
      "stateMutability": "view",
      "type": "function"
    },
    {
      "constant": true,
      "inputs": [],
      "name": "bounty0xToken",
      "outputs": [
        {
          "name": "",
          "type": "address"
        }
      ],
      "payable": false,
      "stateMutability": "view",
      "type": "function"
    },
    {
      "constant": true,
      "inputs": [],
      "name": "SALE_START_DATE",
      "outputs": [
        {
          "name": "",
          "type": "uint256"
        }
      ],
      "payable": false,
      "stateMutability": "view",
      "type": "function"
    },
    {
      "constant": false,
      "inputs": [
        {
          "name": "addresses",
          "type": "address[]"
        }
      ],
      "name": "removeFromWhitelist",
      "outputs": [
        {
          "name": "",
          "type": "bool"
        }
      ],
      "payable": false,
      "stateMutability": "nonpayable",
      "type": "function"
    },
    {
      "constant": true,
      "inputs": [],
      "name": "fixUSDPriceTime",
      "outputs": [
        {
          "name": "",
          "type": "uint256"
        }
      ],
      "payable": false,
      "stateMutability": "view",
      "type": "function"
    },
    {
      "constant": true,
      "inputs": [],
      "name": "paused",
      "outputs": [
        {
          "name": "",
          "type": "bool"
        }
      ],
      "payable": false,
      "stateMutability": "view",
      "type": "function"
    },
    {
      "constant": true,
      "inputs": [],
      "name": "MAX_GAS",
      "outputs": [
        {
          "name": "",
          "type": "uint256"
        }
      ],
      "payable": false,
      "stateMutability": "view",
      "type": "function"
    },
    {
      "constant": true,
      "inputs": [],
      "name": "WHITELIST_END_DATE",
      "outputs": [
        {
          "name": "",
          "type": "uint256"
        }
      ],
      "payable": false,
      "stateMutability": "view",
      "type": "function"
    },
    {
      "constant": true,
      "inputs": [],
      "name": "MICRODOLLARS_PER_DOLLAR",
      "outputs": [
        {
          "name": "",
          "type": "uint256"
        }
      ],
      "payable": false,
      "stateMutability": "view",
      "type": "function"
    },
    {
      "constant": true,
      "inputs": [],
      "name": "WEI_PER_ETH",
      "outputs": [
        {
          "name": "",
          "type": "uint256"
        }
      ],
      "payable": false,
      "stateMutability": "view",
      "type": "function"
    },
    {
      "constant": false,
      "inputs": [
        {
          "name": "addresses",
          "type": "address[]"
        }
      ],
      "name": "addToWhitelist",
      "outputs": [
        {
          "name": "",
          "type": "bool"
        }
      ],
      "payable": false,
      "stateMutability": "nonpayable",
      "type": "function"
    },
    {
      "constant": false,
      "inputs": [],
      "name": "pause",
      "outputs": [],
      "payable": false,
      "stateMutability": "nonpayable",
      "type": "function"
    },
    {
      "constant": true,
      "inputs": [],
      "name": "MAXIMUM_CONTRIBUTION_LIMITED_PERIOD_USD",
      "outputs": [
        {
          "name": "",
          "type": "uint256"
        }
      ],
      "payable": false,
      "stateMutability": "view",
      "type": "function"
    },
    {
      "constant": true,
      "inputs": [],
      "name": "owner",
      "outputs": [
        {
          "name": "",
          "type": "address"
        }
      ],
      "payable": false,
      "stateMutability": "view",
      "type": "function"
    },
    {
      "constant": true,
      "inputs": [
        {
          "name": "",
          "type": "address"
        }
      ],
      "name": "contributionAmounts",
      "outputs": [
        {
          "name": "",
          "type": "uint256"
        }
      ],
      "payable": false,
      "stateMutability": "view",
      "type": "function"
    },
    {
      "constant": true,
      "inputs": [],
      "name": "FIXED_PRESALE_USD_ETHER_PRICE",
      "outputs": [
        {
          "name": "",
          "type": "uint256"
        }
      ],
      "payable": false,
      "stateMutability": "view",
      "type": "function"
    },
    {
      "constant": true,
      "inputs": [
        {
          "name": "usd",
          "type": "uint256"
        }
      ],
      "name": "usdToWei",
      "outputs": [
        {
          "name": "",
          "type": "uint256"
        }
      ],
      "payable": false,
      "stateMutability": "view",
      "type": "function"
    },
    {
      "constant": true,
      "inputs": [],
      "name": "bntyMicrodollarPrice",
      "outputs": [
        {
          "name": "",
          "type": "uint256"
        }
      ],
      "payable": false,
      "stateMutability": "view",
      "type": "function"
    },
    {
      "constant": true,
      "inputs": [],
      "name": "MICRO_DOLLARS_PER_BNTY_MAINSALE",
      "outputs": [
        {
          "name": "",
          "type": "uint256"
        }
      ],
      "payable": false,
      "stateMutability": "view",
      "type": "function"
    },
    {
      "constant": true,
      "inputs": [],
      "name": "currentTime",
      "outputs": [
        {
          "name": "",
          "type": "uint256"
        }
      ],
      "payable": false,
      "stateMutability": "view",
      "type": "function"
    },
    {
      "constant": true,
      "inputs": [
        {
          "name": "",
          "type": "address"
        }
      ],
      "name": "whitelisted",
      "outputs": [
        {
          "name": "",
          "type": "bool"
        }
      ],
      "payable": false,
      "stateMutability": "view",
      "type": "function"
    },
    {
      "constant": true,
      "inputs": [],
      "name": "MAX_GAS_PRICE",
      "outputs": [
        {
          "name": "",
          "type": "uint256"
        }
      ],
      "payable": false,
      "stateMutability": "view",
      "type": "function"
    },
    {
      "constant": false,
      "inputs": [
        {
          "name": "_USDEtherPrice",
          "type": "uint256"
        }
      ],
      "name": "setUSDEtherPrice",
      "outputs": [],
      "payable": false,
      "stateMutability": "nonpayable",
      "type": "function"
    },
    {
      "constant": false,
      "inputs": [
        {
          "name": "newOwner",
          "type": "address"
        }
      ],
      "name": "transferOwnership",
      "outputs": [],
      "payable": false,
      "stateMutability": "nonpayable",
      "type": "function"
    },
    {
      "inputs": [
        {
          "name": "_bounty0xToken",
          "type": "address"
        },
        {
          "name": "_USDEtherPrice",
          "type": "uint256"
        }
      ],
      "payable": false,
      "stateMutability": "nonpayable",
      "type": "constructor"
    },
    {
      "payable": true,
      "stateMutability": "payable",
      "type": "fallback"
    },
    {
      "anonymous": false,
      "inputs": [
        {
          "indexed": true,
          "name": "contributor",
          "type": "address"
        },
        {
          "indexed": true,
          "name": "duringWhitelistPeriod",
          "type": "bool"
        },
        {
          "indexed": true,
          "name": "contributedWei",
          "type": "uint256"
        },
        {
          "indexed": false,
          "name": "bntyAwarded",
          "type": "uint256"
        },
        {
          "indexed": false,
          "name": "refundedWei",
          "type": "uint256"
        }
      ],
      "name": "OnContribution",
      "type": "event"
    },
    {
      "anonymous": false,
      "inputs": [
        {
          "indexed": false,
          "name": "to",
          "type": "address"
        },
        {
          "indexed": false,
          "name": "amount",
          "type": "uint256"
        }
      ],
      "name": "OnWithdraw",
      "type": "event"
    },
    {
      "anonymous": false,
      "inputs": [],
      "name": "Pause",
      "type": "event"
    },
    {
      "anonymous": false,
      "inputs": [],
      "name": "Unpause",
      "type": "event"
    },
    {
      "anonymous": false,
      "inputs": [
        {
          "indexed": true,
          "name": "addr",
          "type": "address"
        }
      ],
      "name": "LogWhitelistAdd",
      "type": "event"
    },
    {
      "anonymous": false,
      "inputs": [
        {
          "indexed": true,
          "name": "addr",
          "type": "address"
        }
      ],
      "name": "LogWhitelistRemove",
      "type": "event"
    },
    {
      "anonymous": false,
      "inputs": [
        {
          "indexed": true,
          "name": "previousOwner",
          "type": "address"
        },
        {
          "indexed": true,
          "name": "newOwner",
          "type": "address"
        }
      ],
      "name": "OwnershipTransferred",
      "type": "event"
    }
  ],
  "bytecode": "0x60606040526000600560006101000a81548160ff021916908315150217905550341561002a57600080fd5b6040516040806119a48339810160405280805190602001909190805190602001909190505061407481635a33d560336000806101000a81548173ffffffffffffffffffffffffffffffffffffffff021916908373ffffffffffffffffffffffffffffffffffffffff1602179055506000831115156100a757600080fd5b6000821115156100b657600080fd5b82600181905550806003819055508160028190555050505081600560016101000a81548173ffffffffffffffffffffffffffffffffffffffff021916908373ffffffffffffffffffffffffffffffffffffffff1602179055505050611884806101206000396000f3006060604052600436106101b7576000357c0100000000000000000000000000000000000000000000000000000000900463ffffffff1680630563bbf6146106d8578063137ce8e314610701578063180773de1461072a578063219a6ead1461075357806327d741df1461077c5780632e1a7d4d146107a55780632f1a8177146107c857806337c08923146107ff5780633af32abf146108285780633f4ba83a146108795780634e22102b1461088e5780634f271740146108b757806352e32a55146108e0578063547c1b6a14610935578063548db1741461095e57806356639a8e146109d05780635c975abb146109f95780635f2a9f4114610a265780636855ded314610a4f5780636fa65c4f14610a7857806374ffdcd014610aa15780637f64978314610aca5780638456cb5914610b3c5780638704c6ac14610b515780638da5cb5b14610b7a5780639223de0514610bcf578063a58079fc14610c1c578063a6a8613014610c45578063b8d415c914610c7c578063ccb61dad14610ca5578063d18e81b314610cce578063d936547e14610cf7578063e3bbb4f114610d48578063e79fb53c14610d71578063f2fde38b14610d94575b600080600080600080600560009054906101000a900460ff161515156101dc57600080fd5b6101e4610dcd565b9550635a33d56086101515156101f957600080fd5b6224ea00635a33d560018610151561021057600080fd5b6102306007546102226216e360610dd5565b610e0d90919063ffffffff16565b945062015180635a33d56001861093506202a300635a33d560018610156103665764104c533c003a1115151561026557600080fd5b6207a1205a1115151561027757600080fd5b83156102fd5761028633610e26565b151561029157600080fd5b6102f6856102f1600660003373ffffffffffffffffffffffffffffffffffffffff1673ffffffffffffffffffffffffffffffffffffffff168152602001908152602001600020546102e36105dc610dd5565b610e0d90919063ffffffff16565b610e7c565b9450610365565b6103628561035d600660003373ffffffffffffffffffffffffffffffffffffffff1673ffffffffffffffffffffffffffffffffffffffff1681526020019081526020016000205461034f612710610dd5565b610e0d90919063ffffffff16565b610e7c565b94505b5b6103703486610e7c565b92506103858334610e0d90919063ffffffff16565b915060008311151561039657600080fd5b6103ab83600754610e9590919063ffffffff16565b60078190555061040383600660003373ffffffffffffffffffffffffffffffffffffffff1673ffffffffffffffffffffffffffffffffffffffff16815260200190815260200160002054610e9590919063ffffffff16565b600660003373ffffffffffffffffffffffffffffffffffffffff1673ffffffffffffffffffffffffffffffffffffffff1681526020019081526020016000208190555061053761045284610eb3565b600560019054906101000a900473ffffffffffffffffffffffffffffffffffffffff1673ffffffffffffffffffffffffffffffffffffffff166370a08231306000604051602001526040518263ffffffff167c0100000000000000000000000000000000000000000000000000000000028152600401808273ffffffffffffffffffffffffffffffffffffffff1673ffffffffffffffffffffffffffffffffffffffff168152602001915050602060405180830381600087803b151561051757600080fd5b6102c65a03f1151561052857600080fd5b50505060405180519050610e7c565b9050600560019054906101000a900473ffffffffffffffffffffffffffffffffffffffff1673ffffffffffffffffffffffffffffffffffffffff1663a9059cbb33836000604051602001526040518363ffffffff167c0100000000000000000000000000000000000000000000000000000000028152600401808373ffffffffffffffffffffffffffffffffffffffff1673ffffffffffffffffffffffffffffffffffffffff16815260200182815260200192505050602060405180830381600087803b151561060657600080fd5b6102c65a03f1151561061757600080fd5b50505060405180519050151561062c57600080fd5b6000821115610676573373ffffffffffffffffffffffffffffffffffffffff166108fc839081150290604051600060405180830381858888f19350505050151561067557600080fd5b5b828415153373ffffffffffffffffffffffffffffffffffffffff167f38734c334284a87a4cb1a00fd6baa2319ee473fb73b9d41272227f238ae87dfd8486604051808381526020018281526020019250505060405180910390a4505050505050005b34156106e357600080fd5b6106eb610efa565b6040518082815260200191505060405180910390f35b341561070c57600080fd5b610714610f00565b6040518082815260200191505060405180910390f35b341561073557600080fd5b61073d610f07565b6040518082815260200191505060405180910390f35b341561075e57600080fd5b610766610f0d565b6040518082815260200191505060405180910390f35b341561078757600080fd5b61078f610f13565b6040518082815260200191505060405180910390f35b34156107b057600080fd5b6107c66004808035906020019091905050610f20565b005b34156107d357600080fd5b6107e96004808035906020019091905050610eb3565b6040518082815260200191505060405180910390f35b341561080a57600080fd5b610812611029565b6040518082815260200191505060405180910390f35b341561083357600080fd5b61085f600480803573ffffffffffffffffffffffffffffffffffffffff16906020019091905050610e26565b604051808215151515815260200191505060405180910390f35b341561088457600080fd5b61088c61102f565b005b341561089957600080fd5b6108a16110ee565b6040518082815260200191505060405180910390f35b34156108c257600080fd5b6108ca6110fb565b6040518082815260200191505060405180910390f35b34156108eb57600080fd5b6108f3611109565b604051808273ffffffffffffffffffffffffffffffffffffffff1673ffffffffffffffffffffffffffffffffffffffff16815260200191505060405180910390f35b341561094057600080fd5b61094861112f565b6040518082815260200191505060405180910390f35b341561096957600080fd5b6109b6600480803590602001908201803590602001908080602002602001604051908101604052809392919081815260200183836020028082843782019150505050505091905050611137565b604051808215151515815260200191505060405180910390f35b34156109db57600080fd5b6109e36112ed565b6040518082815260200191505060405180910390f35b3415610a0457600080fd5b610a0c6112f3565b604051808215151515815260200191505060405180910390f35b3415610a3157600080fd5b610a39611306565b6040518082815260200191505060405180910390f35b3415610a5a57600080fd5b610a6261130d565b6040518082815260200191505060405180910390f35b3415610a8357600080fd5b610a8b61131a565b6040518082815260200191505060405180910390f35b3415610aac57600080fd5b610ab4611321565b6040518082815260200191505060405180910390f35b3415610ad557600080fd5b610b2260048080359060200190820180359060200190808060200260200160405190810160405280939291908181526020018383602002808284378201915050505050509190505061132d565b604051808215151515815260200191505060405180910390f35b3415610b4757600080fd5b610b4f6114e4565b005b3415610b5c57600080fd5b610b646115a4565b6040518082815260200191505060405180910390f35b3415610b8557600080fd5b610b8d6115aa565b604051808273ffffffffffffffffffffffffffffffffffffffff1673ffffffffffffffffffffffffffffffffffffffff16815260200191505060405180910390f35b3415610bda57600080fd5b610c06600480803573ffffffffffffffffffffffffffffffffffffffff169060200190919050506115cf565b6040518082815260200191505060405180910390f35b3415610c2757600080fd5b610c2f6115e7565b6040518082815260200191505060405180910390f35b3415610c5057600080fd5b610c666004808035906020019091905050610dd5565b6040518082815260200191505060405180910390f35b3415610c8757600080fd5b610c8f6115ed565b6040518082815260200191505060405180910390f35b3415610cb057600080fd5b610cb86115f3565b6040518082815260200191505060405180910390f35b3415610cd957600080fd5b610ce1610dcd565b6040518082815260200191505060405180910390f35b3415610d0257600080fd5b610d2e600480803573ffffffffffffffffffffffffffffffffffffffff169060200190919050506115f9565b604051808215151515815260200191505060405180910390f35b3415610d5357600080fd5b610d5b611619565b6040518082815260200191505060405180910390f35b3415610d7c57600080fd5b610d926004808035906020019091905050611622565b005b3415610d9f57600080fd5b610dcb600480803573ffffffffffffffffffffffffffffffffffffffff169060200190919050506116ad565b005b600042905090565b6000610e06600254610df884670de0b6b3a764000061180290919063ffffffff16565b61183d90919063ffffffff16565b9050919050565b6000828211151515610e1b57fe5b818303905092915050565b6000600460008373ffffffffffffffffffffffffffffffffffffffff1673ffffffffffffffffffffffffffffffffffffffff16815260200190815260200160002060009054906101000a900460ff169050919050565b6000818310610e8b5781610e8d565b825b905092915050565b6000808284019050838110151515610ea957fe5b8091505092915050565b6000610ef3600154610ee584610ed7620f424060025461180290919063ffffffff16565b61180290919063ffffffff16565b61183d90919063ffffffff16565b9050919050565b60025481565b6216e36081565b6105dc81565b61339081565b6224ea00635a33d5600181565b6000809054906101000a900473ffffffffffffffffffffffffffffffffffffffff1673ffffffffffffffffffffffffffffffffffffffff163373ffffffffffffffffffffffffffffffffffffffff16141515610f7b57600080fd5b3373ffffffffffffffffffffffffffffffffffffffff166108fc829081150290604051600060405180830381858888f193505050501515610fbb57600080fd5b7fbace9fd79d5ea02ed8b43fa96af07e4e8f859a2f71ff878c748f5c22c57802843382604051808373ffffffffffffffffffffffffffffffffffffffff1673ffffffffffffffffffffffffffffffffffffffff1681526020018281526020019250505060405180910390a150565b60075481565b6000809054906101000a900473ffffffffffffffffffffffffffffffffffffffff1673ffffffffffffffffffffffffffffffffffffffff163373ffffffffffffffffffffffffffffffffffffffff1614151561108a57600080fd5b600560009054906101000a900460ff1615156110a557600080fd5b6000600560006101000a81548160ff0219169083151502179055507f7805862f689e2f13df9f062ff482ad3ad112aca9e0847911ed832e158c525b3360405160405180910390a1565b6202a300635a33d5600181565b6302bd5e00635a33d5600181565b600560019054906101000a900473ffffffffffffffffffffffffffffffffffffffff1681565b635a33d56081565b6000806000809054906101000a900473ffffffffffffffffffffffffffffffffffffffff1673ffffffffffffffffffffffffffffffffffffffff163373ffffffffffffffffffffffffffffffffffffffff1614151561119557600080fd5b600090505b82518110156112e3576004600084838151811015156111b557fe5b9060200190602002015173ffffffffffffffffffffffffffffffffffffffff1673ffffffffffffffffffffffffffffffffffffffff16815260200190815260200160002060009054906101000a900460ff16156112d657600060046000858481518110151561122057fe5b9060200190602002015173ffffffffffffffffffffffffffffffffffffffff1673ffffffffffffffffffffffffffffffffffffffff16815260200190815260200160002060006101000a81548160ff021916908315150217905550828181518110151561128957fe5b9060200190602002015173ffffffffffffffffffffffffffffffffffffffff167f63ed6d5de83b65405e74e66aea9f7df2c26bfac71b55f5d75ec5f85930c3520e60405160405180910390a25b808060010191505061119a565b6001915050919050565b60035481565b600560009054906101000a900460ff1681565b6207a12081565b62015180635a33d5600181565b620f424081565b670de0b6b3a764000081565b6000806000809054906101000a900473ffffffffffffffffffffffffffffffffffffffff1673ffffffffffffffffffffffffffffffffffffffff163373ffffffffffffffffffffffffffffffffffffffff1614151561138b57600080fd5b600090505b82518110156114da576004600084838151811015156113ab57fe5b9060200190602002015173ffffffffffffffffffffffffffffffffffffffff1673ffffffffffffffffffffffffffffffffffffffff16815260200190815260200160002060009054906101000a900460ff1615156114cd57600160046000858481518110151561141757fe5b9060200190602002015173ffffffffffffffffffffffffffffffffffffffff1673ffffffffffffffffffffffffffffffffffffffff16815260200190815260200160002060006101000a81548160ff021916908315150217905550828181518110151561148057fe5b9060200190602002015173ffffffffffffffffffffffffffffffffffffffff167f172960d4eef15ccec151ed01c8488f061df273831457381b8aac30412eada1de60405160405180910390a25b8080600101915050611390565b6001915050919050565b6000809054906101000a900473ffffffffffffffffffffffffffffffffffffffff1673ffffffffffffffffffffffffffffffffffffffff163373ffffffffffffffffffffffffffffffffffffffff1614151561153f57600080fd5b600560009054906101000a900460ff1615151561155b57600080fd5b6001600560006101000a81548160ff0219169083151502179055507f6985a02210a168e66602d3235cb6db0e70f92b3ba4d376a33c0f3d9434bff62560405160405180910390a1565b61271081565b6000809054906101000a900473ffffffffffffffffffffffffffffffffffffffff1681565b60066020528060005260406000206000915090505481565b61016381565b60015481565b61407481565b60046020528060005260406000206000915054906101000a900460ff1681565b64104c533c0081565b6000809054906101000a900473ffffffffffffffffffffffffffffffffffffffff1673ffffffffffffffffffffffffffffffffffffffff163373ffffffffffffffffffffffffffffffffffffffff1614151561167d57600080fd5b600354611688610dcd565b10151561169457600080fd5b6000811115156116a357600080fd5b8060028190555050565b6000809054906101000a900473ffffffffffffffffffffffffffffffffffffffff1673ffffffffffffffffffffffffffffffffffffffff163373ffffffffffffffffffffffffffffffffffffffff1614151561170857600080fd5b600073ffffffffffffffffffffffffffffffffffffffff168173ffffffffffffffffffffffffffffffffffffffff161415151561174457600080fd5b8073ffffffffffffffffffffffffffffffffffffffff166000809054906101000a900473ffffffffffffffffffffffffffffffffffffffff1673ffffffffffffffffffffffffffffffffffffffff167f8be0079c531659141344cd1fd0a4f28419497f9722a3daafe3b4186f6b6457e060405160405180910390a3806000806101000a81548173ffffffffffffffffffffffffffffffffffffffff021916908373ffffffffffffffffffffffffffffffffffffffff16021790555050565b60008060008414156118175760009150611836565b828402905082848281151561182857fe5b0414151561183257fe5b8091505b5092915050565b600080828481151561184b57fe5b04905080915050929150505600a165627a7a7230582041ea20df627c7bf319cdf1302b25dbcabc23a89ee8d3d54e77a54f78332847b20029",
  "source": "pragma solidity ^0.4.18;\n\nimport 'zeppelin-solidity/contracts/ownership/Ownable.sol';\nimport 'zeppelin-solidity/contracts/lifecycle/Pausable.sol';\nimport 'zeppelin-solidity/contracts/math/SafeMath.sol';\nimport 'zeppelin-solidity/contracts/math/Math.sol';\n\nimport './Bounty0xToken.sol';\nimport './BntyExchangeRateCalculator.sol';\nimport './KnowsConstants.sol';\nimport './KnowsTime.sol';\nimport './AddressWhitelist.sol';\nimport './Bounty0xPresaleDistributor.sol';\nimport './Bounty0xReserveHolder.sol';\n\ncontract Bounty0xCrowdsale is KnowsTime, KnowsConstants, Ownable, BntyExchangeRateCalculator, AddressWhitelist, Pausable {\n    using SafeMath for uint;\n\n    // Crowdsale contracts\n    Bounty0xToken public bounty0xToken;                                 // Reward tokens to compensate in\n\n    // Contribution amounts\n    mapping (address => uint) public contributionAmounts;            // The amount that each address has contributed\n    uint public totalContributions;                                  // Total contributions given\n\n    // Events\n    event OnContribution(address indexed contributor, bool indexed duringWhitelistPeriod, uint indexed contributedWei, uint bntyAwarded, uint refundedWei);\n    event OnWithdraw(address to, uint amount);\n\n    function Bounty0xCrowdsale(Bounty0xToken _bounty0xToken, uint _USDEtherPrice)\n        BntyExchangeRateCalculator(MICRO_DOLLARS_PER_BNTY_MAINSALE, _USDEtherPrice, SALE_START_DATE)\n        public\n    {\n        bounty0xToken = _bounty0xToken;\n    }\n\n    // the crowdsale owner may withdraw any amount of ether from this contract at any time\n    function withdraw(uint amount) public onlyOwner {\n        msg.sender.transfer(amount);\n        OnWithdraw(msg.sender, amount);\n    }\n\n    // All contributions come through the fallback function\n    function () payable public whenNotPaused {\n        uint time = currentTime();\n\n        // require the sale has started\n        require(time >= SALE_START_DATE);\n\n        // require that the sale has not ended\n        require(time < SALE_END_DATE);\n\n        // maximum contribution from this transaction is tracked in this variable\n        uint maximumContribution = usdToWei(HARD_CAP_USD).sub(totalContributions);\n\n        // store whether the contribution is made during the whitelist period\n        bool isDuringWhitelistPeriod = time < WHITELIST_END_DATE;\n\n        // these limits are only checked during the limited period\n        if (time < LIMITS_END_DATE) {\n            // require that they have not overpaid their gas price\n            require(tx.gasprice <= MAX_GAS_PRICE);\n\n            // require that they haven't sent too much gas\n            require(msg.gas <= MAX_GAS);\n\n            // if we are in the WHITELIST period, we need to make sure the sender contributed to the presale\n            if (isDuringWhitelistPeriod) {\n                require(isWhitelisted(msg.sender));\n\n                // the maximum contribution is set for the whitelist period\n                maximumContribution = Math.min256(\n                    maximumContribution,\n                    usdToWei(MAXIMUM_CONTRIBUTION_WHITELIST_PERIOD_USD).sub(contributionAmounts[msg.sender])\n                );\n            } else {\n                // the maximum contribution is set for the limited period\n                maximumContribution = Math.min256(\n                    maximumContribution,\n                    usdToWei(MAXIMUM_CONTRIBUTION_LIMITED_PERIOD_USD).sub(contributionAmounts[msg.sender])\n                );\n            }\n        }\n\n        // calculate how much contribution is accepted and how much is refunded\n        uint contribution = Math.min256(msg.value, maximumContribution);\n        uint refundWei = msg.value.sub(contribution);\n\n        // require that they are allowed to contribute more\n        require(contribution > 0);\n\n        // account contribution towards total\n        totalContributions = totalContributions.add(contribution);\n\n        // account contribution towards address total\n        contributionAmounts[msg.sender] = contributionAmounts[msg.sender].add(contribution);\n\n        // and send them some bnty\n        uint amountBntyRewarded = Math.min256(weiToBnty(contribution), bounty0xToken.balanceOf(this));\n        require(bounty0xToken.transfer(msg.sender, amountBntyRewarded));\n\n        if (refundWei > 0) {\n            msg.sender.transfer(refundWei);\n        }\n\n        // log the contribution\n        OnContribution(msg.sender, isDuringWhitelistPeriod, contribution, amountBntyRewarded, refundWei);\n    }\n}",
  "sourcePath": "/Users/denizdalkilic/Documents/Blockchain/Bounty0x/Bounty0xTokenSale/contracts/Bounty0xCrowdsale.sol",
  "compiler": {
    "name": "solc",
    "version": "0.4.18+commit.9cf6e910.Emscripten.clang"
  },
  "schemaVersion": "1.0.1",
  "updatedAt": "2017-12-15T11:54:49.708Z"
}