{
  "contractName": "Bounty0xPresaleDistributor",
  "abi": [
    {
      "constant": true,
      "inputs": [],
      "name": "USDEtherPrice",
      "outputs": [
        {
          "name": "",
          "type": "uint256"
        }
      ],
      "payable": false,
      "stateMutability": "view",
      "type": "function"
    },
    {
      "constant": true,
      "inputs": [],
      "name": "HARD_CAP_USD",
      "outputs": [
        {
          "name": "",
          "type": "uint256"
        }
      ],
      "payable": false,
      "stateMutability": "view",
      "type": "function"
    },
    {
      "constant": true,
      "inputs": [],
      "name": "deployedPresaleContract",
      "outputs": [
        {
          "name": "",
          "type": "address"
        }
      ],
      "payable": false,
      "stateMutability": "view",
      "type": "function"
    },
    {
      "constant": true,
      "inputs": [],
      "name": "MAXIMUM_CONTRIBUTION_WHITELIST_PERIOD_USD",
      "outputs": [
        {
          "name": "",
          "type": "uint256"
        }
      ],
      "payable": false,
      "stateMutability": "view",
      "type": "function"
    },
    {
      "constant": true,
      "inputs": [],
      "name": "MICRO_DOLLARS_PER_BNTY_PRESALE",
      "outputs": [
        {
          "name": "",
          "type": "uint256"
        }
      ],
      "payable": false,
      "stateMutability": "view",
      "type": "function"
    },
    {
      "constant": true,
      "inputs": [],
      "name": "SALE_END_DATE",
      "outputs": [
        {
          "name": "",
          "type": "uint256"
        }
      ],
      "payable": false,
      "stateMutability": "view",
      "type": "function"
    },
    {
      "constant": true,
      "inputs": [
        {
          "name": "amtWei",
          "type": "uint256"
        }
      ],
      "name": "weiToBnty",
      "outputs": [
        {
          "name": "",
          "type": "uint256"
        }
      ],
      "payable": false,
      "stateMutability": "view",
      "type": "function"
    },
    {
      "constant": true,
      "inputs": [],
      "name": "LIMITS_END_DATE",
      "outputs": [
        {
          "name": "",
          "type": "uint256"
        }
      ],
      "payable": false,
      "stateMutability": "view",
      "type": "function"
    },
    {
      "constant": true,
      "inputs": [],
      "name": "UNFREEZE_DATE",
      "outputs": [
        {
          "name": "",
          "type": "uint256"
        }
      ],
      "payable": false,
      "stateMutability": "view",
      "type": "function"
    },
    {
      "constant": true,
      "inputs": [],
      "name": "bounty0xToken",
      "outputs": [
        {
          "name": "",
          "type": "address"
        }
      ],
      "payable": false,
      "stateMutability": "view",
      "type": "function"
    },
    {
      "constant": true,
      "inputs": [],
      "name": "SALE_START_DATE",
      "outputs": [
        {
          "name": "",
          "type": "uint256"
        }
      ],
      "payable": false,
      "stateMutability": "view",
      "type": "function"
    },
    {
      "constant": true,
      "inputs": [],
      "name": "fixUSDPriceTime",
      "outputs": [
        {
          "name": "",
          "type": "uint256"
        }
      ],
      "payable": false,
      "stateMutability": "view",
      "type": "function"
    },
    {
      "constant": true,
      "inputs": [],
      "name": "MAX_GAS",
      "outputs": [
        {
          "name": "",
          "type": "uint256"
        }
      ],
      "payable": false,
      "stateMutability": "view",
      "type": "function"
    },
    {
      "constant": false,
      "inputs": [
        {
          "name": "preSaleInvestors",
          "type": "address[]"
        }
      ],
      "name": "compensatePreSaleInvestors",
      "outputs": [],
      "payable": false,
      "stateMutability": "nonpayable",
      "type": "function"
    },
    {
      "constant": true,
      "inputs": [],
      "name": "WHITELIST_END_DATE",
      "outputs": [
        {
          "name": "",
          "type": "uint256"
        }
      ],
      "payable": false,
      "stateMutability": "view",
      "type": "function"
    },
    {
      "constant": true,
      "inputs": [],
      "name": "MICRODOLLARS_PER_DOLLAR",
      "outputs": [
        {
          "name": "",
          "type": "uint256"
        }
      ],
      "payable": false,
      "stateMutability": "view",
      "type": "function"
    },
    {
      "constant": true,
      "inputs": [],
      "name": "WEI_PER_ETH",
      "outputs": [
        {
          "name": "",
          "type": "uint256"
        }
      ],
      "payable": false,
      "stateMutability": "view",
      "type": "function"
    },
    {
      "constant": true,
      "inputs": [],
      "name": "MAXIMUM_CONTRIBUTION_LIMITED_PERIOD_USD",
      "outputs": [
        {
          "name": "",
          "type": "uint256"
        }
      ],
      "payable": false,
      "stateMutability": "view",
      "type": "function"
    },
    {
      "constant": true,
      "inputs": [],
      "name": "owner",
      "outputs": [
        {
          "name": "",
          "type": "address"
        }
      ],
      "payable": false,
      "stateMutability": "view",
      "type": "function"
    },
    {
      "constant": true,
      "inputs": [],
      "name": "FIXED_PRESALE_USD_ETHER_PRICE",
      "outputs": [
        {
          "name": "",
          "type": "uint256"
        }
      ],
      "payable": false,
      "stateMutability": "view",
      "type": "function"
    },
    {
      "constant": true,
      "inputs": [
        {
          "name": "usd",
          "type": "uint256"
        }
      ],
      "name": "usdToWei",
      "outputs": [
        {
          "name": "",
          "type": "uint256"
        }
      ],
      "payable": false,
      "stateMutability": "view",
      "type": "function"
    },
    {
      "constant": true,
      "inputs": [],
      "name": "bntyMicrodollarPrice",
      "outputs": [
        {
          "name": "",
          "type": "uint256"
        }
      ],
      "payable": false,
      "stateMutability": "view",
      "type": "function"
    },
    {
      "constant": true,
      "inputs": [],
      "name": "MICRO_DOLLARS_PER_BNTY_MAINSALE",
      "outputs": [
        {
          "name": "",
          "type": "uint256"
        }
      ],
      "payable": false,
      "stateMutability": "view",
      "type": "function"
    },
    {
      "constant": true,
      "inputs": [],
      "name": "currentTime",
      "outputs": [
        {
          "name": "",
          "type": "uint256"
        }
      ],
      "payable": false,
      "stateMutability": "view",
      "type": "function"
    },
    {
      "constant": true,
      "inputs": [],
      "name": "MAX_GAS_PRICE",
      "outputs": [
        {
          "name": "",
          "type": "uint256"
        }
      ],
      "payable": false,
      "stateMutability": "view",
      "type": "function"
    },
    {
      "constant": false,
      "inputs": [
        {
          "name": "_USDEtherPrice",
          "type": "uint256"
        }
      ],
      "name": "setUSDEtherPrice",
      "outputs": [],
      "payable": false,
      "stateMutability": "nonpayable",
      "type": "function"
    },
    {
      "constant": true,
      "inputs": [
        {
          "name": "",
          "type": "address"
        }
      ],
      "name": "tokensPaid",
      "outputs": [
        {
          "name": "",
          "type": "uint256"
        }
      ],
      "payable": false,
      "stateMutability": "view",
      "type": "function"
    },
    {
      "constant": false,
      "inputs": [
        {
          "name": "newOwner",
          "type": "address"
        }
      ],
      "name": "transferOwnership",
      "outputs": [],
      "payable": false,
      "stateMutability": "nonpayable",
      "type": "function"
    },
    {
      "inputs": [
        {
          "name": "_bounty0xToken",
          "type": "address"
        },
        {
          "name": "_deployedPresaleContract",
          "type": "address"
        }
      ],
      "payable": false,
      "stateMutability": "nonpayable",
      "type": "constructor"
    },
    {
      "anonymous": false,
      "inputs": [
        {
          "indexed": true,
          "name": "contributor",
          "type": "address"
        },
        {
          "indexed": false,
          "name": "numTokens",
          "type": "uint256"
        }
      ],
      "name": "OnPreSaleBuyerCompensated",
      "type": "event"
    },
    {
      "anonymous": false,
      "inputs": [
        {
          "indexed": true,
          "name": "previousOwner",
          "type": "address"
        },
        {
          "indexed": true,
          "name": "newOwner",
          "type": "address"
        }
      ],
      "name": "OwnershipTransferred",
      "type": "event"
    }
  ],
  "bytecode": "0x6060604052341561000f57600080fd5b604051604080611042833981016040528080519060200190919080519060200190919050506133906101636000336000806101000a81548173ffffffffffffffffffffffffffffffffffffffff021916908373ffffffffffffffffffffffffffffffffffffffff16021790555060008311151561008b57600080fd5b60008211151561009a57600080fd5b82600181905550806003819055508160028190555050505081600560006101000a81548173ffffffffffffffffffffffffffffffffffffffff021916908373ffffffffffffffffffffffffffffffffffffffff16021790555080600460006101000a81548173ffffffffffffffffffffffffffffffffffffffff021916908373ffffffffffffffffffffffffffffffffffffffff1602179055505050610efd806101456000396000f30060606040526004361061016a576000357c0100000000000000000000000000000000000000000000000000000000900463ffffffff1680630563bbf61461016f578063137ce8e31461019857806315bf7cd7146101c1578063180773de14610216578063219a6ead1461023f57806327d741df146102685780632f1a8177146102915780634e22102b146102c85780634f271740146102f157806352e32a551461031a578063547c1b6a1461036f57806356639a8e146103985780635f2a9f41146103c157806367d96c24146103ea5780636855ded3146104445780636fa65c4f1461046d57806374ffdcd0146104965780638704c6ac146104bf5780638da5cb5b146104e8578063a58079fc1461053d578063a6a8613014610566578063b8d415c91461059d578063ccb61dad146105c6578063d18e81b3146105ef578063e3bbb4f114610618578063e79fb53c14610641578063ed0c412314610664578063f2fde38b146106b1575b600080fd5b341561017a57600080fd5b6101826106ea565b6040518082815260200191505060405180910390f35b34156101a357600080fd5b6101ab6106f0565b6040518082815260200191505060405180910390f35b34156101cc57600080fd5b6101d46106f7565b604051808273ffffffffffffffffffffffffffffffffffffffff1673ffffffffffffffffffffffffffffffffffffffff16815260200191505060405180910390f35b341561022157600080fd5b61022961071d565b6040518082815260200191505060405180910390f35b341561024a57600080fd5b610252610723565b6040518082815260200191505060405180910390f35b341561027357600080fd5b61027b610729565b6040518082815260200191505060405180910390f35b341561029c57600080fd5b6102b26004808035906020019091905050610736565b6040518082815260200191505060405180910390f35b34156102d357600080fd5b6102db61077d565b6040518082815260200191505060405180910390f35b34156102fc57600080fd5b61030461078a565b6040518082815260200191505060405180910390f35b341561032557600080fd5b61032d610798565b604051808273ffffffffffffffffffffffffffffffffffffffff1673ffffffffffffffffffffffffffffffffffffffff16815260200191505060405180910390f35b341561037a57600080fd5b6103826107be565b6040518082815260200191505060405180910390f35b34156103a357600080fd5b6103ab6107c6565b6040518082815260200191505060405180910390f35b34156103cc57600080fd5b6103d46107cc565b6040518082815260200191505060405180910390f35b34156103f557600080fd5b6104426004808035906020019082018035906020019080806020026020016040519081016040528093929190818152602001838360200280828437820191505050505050919050506107d3565b005b341561044f57600080fd5b610457610bc4565b6040518082815260200191505060405180910390f35b341561047857600080fd5b610480610bd1565b6040518082815260200191505060405180910390f35b34156104a157600080fd5b6104a9610bd8565b6040518082815260200191505060405180910390f35b34156104ca57600080fd5b6104d2610be4565b6040518082815260200191505060405180910390f35b34156104f357600080fd5b6104fb610bea565b604051808273ffffffffffffffffffffffffffffffffffffffff1673ffffffffffffffffffffffffffffffffffffffff16815260200191505060405180910390f35b341561054857600080fd5b610550610c0f565b6040518082815260200191505060405180910390f35b341561057157600080fd5b6105876004808035906020019091905050610c15565b6040518082815260200191505060405180910390f35b34156105a857600080fd5b6105b0610c4d565b6040518082815260200191505060405180910390f35b34156105d157600080fd5b6105d9610c53565b6040518082815260200191505060405180910390f35b34156105fa57600080fd5b610602610c59565b6040518082815260200191505060405180910390f35b341561062357600080fd5b61062b610c61565b6040518082815260200191505060405180910390f35b341561064c57600080fd5b6106626004808035906020019091905050610c6a565b005b341561066f57600080fd5b61069b600480803573ffffffffffffffffffffffffffffffffffffffff16906020019091905050610cf5565b6040518082815260200191505060405180910390f35b34156106bc57600080fd5b6106e8600480803573ffffffffffffffffffffffffffffffffffffffff16906020019091905050610d0d565b005b60025481565b6216e36081565b600460009054906101000a900473ffffffffffffffffffffffffffffffffffffffff1681565b6105dc81565b61339081565b6224ea00635a33d5600181565b60006107766001546107688461075a620f4240600254610e6290919063ffffffff16565b610e6290919063ffffffff16565b610e9d90919063ffffffff16565b9050919050565b6202a300635a33d5600181565b6302bd5e00635a33d5600181565b600560009054906101000a900473ffffffffffffffffffffffffffffffffffffffff1681565b635a33d56081565b60035481565b6207a12081565b600080600080600093505b8451841015610bbd5784848151811015156107f557fe5b906020019060200201519250600460009054906101000a900473ffffffffffffffffffffffffffffffffffffffff1673ffffffffffffffffffffffffffffffffffffffff166370a08231846000604051602001526040518263ffffffff167c0100000000000000000000000000000000000000000000000000000000028152600401808273ffffffffffffffffffffffffffffffffffffffff1673ffffffffffffffffffffffffffffffffffffffff168152602001915050602060405180830381600087803b15156108c657600080fd5b6102c65a03f115156108d757600080fd5b50505060405180519050915060008211801561093257506000600660008573ffffffffffffffffffffffffffffffffffffffff1673ffffffffffffffffffffffffffffffffffffffff16815260200190815260200160002054145b15610bb057610a2861094383610736565b600560009054906101000a900473ffffffffffffffffffffffffffffffffffffffff1673ffffffffffffffffffffffffffffffffffffffff166370a08231306000604051602001526040518263ffffffff167c0100000000000000000000000000000000000000000000000000000000028152600401808273ffffffffffffffffffffffffffffffffffffffff1673ffffffffffffffffffffffffffffffffffffffff168152602001915050602060405180830381600087803b1515610a0857600080fd5b6102c65a03f11515610a1957600080fd5b50505060405180519050610eb8565b905080600660008573ffffffffffffffffffffffffffffffffffffffff1673ffffffffffffffffffffffffffffffffffffffff16815260200190815260200160002081905550600560009054906101000a900473ffffffffffffffffffffffffffffffffffffffff1673ffffffffffffffffffffffffffffffffffffffff1663a9059cbb84836000604051602001526040518363ffffffff167c0100000000000000000000000000000000000000000000000000000000028152600401808373ffffffffffffffffffffffffffffffffffffffff1673ffffffffffffffffffffffffffffffffffffffff16815260200182815260200192505050602060405180830381600087803b1515610b3b57600080fd5b6102c65a03f11515610b4c57600080fd5b505050604051805190501515610b6157600080fd5b8273ffffffffffffffffffffffffffffffffffffffff167fc5893a8ea751a9563345744388204542e2ba96f12b62c4f3edd3f4291acf636a826040518082815260200191505060405180910390a25b83806001019450506107de565b5050505050565b62015180635a33d5600181565b620f424081565b670de0b6b3a764000081565b61271081565b6000809054906101000a900473ffffffffffffffffffffffffffffffffffffffff1681565b61016381565b6000610c46600254610c3884670de0b6b3a7640000610e6290919063ffffffff16565b610e9d90919063ffffffff16565b9050919050565b60015481565b61407481565b600042905090565b64104c533c0081565b6000809054906101000a900473ffffffffffffffffffffffffffffffffffffffff1673ffffffffffffffffffffffffffffffffffffffff163373ffffffffffffffffffffffffffffffffffffffff16141515610cc557600080fd5b600354610cd0610c59565b101515610cdc57600080fd5b600081111515610ceb57600080fd5b8060028190555050565b60066020528060005260406000206000915090505481565b6000809054906101000a900473ffffffffffffffffffffffffffffffffffffffff1673ffffffffffffffffffffffffffffffffffffffff163373ffffffffffffffffffffffffffffffffffffffff16141515610d6857600080fd5b600073ffffffffffffffffffffffffffffffffffffffff168173ffffffffffffffffffffffffffffffffffffffff1614151515610da457600080fd5b8073ffffffffffffffffffffffffffffffffffffffff166000809054906101000a900473ffffffffffffffffffffffffffffffffffffffff1673ffffffffffffffffffffffffffffffffffffffff167f8be0079c531659141344cd1fd0a4f28419497f9722a3daafe3b4186f6b6457e060405160405180910390a3806000806101000a81548173ffffffffffffffffffffffffffffffffffffffff021916908373ffffffffffffffffffffffffffffffffffffffff16021790555050565b6000806000841415610e775760009150610e96565b8284029050828482811515610e8857fe5b04141515610e9257fe5b8091505b5092915050565b6000808284811515610eab57fe5b0490508091505092915050565b6000818310610ec75781610ec9565b825b9050929150505600a165627a7a72305820f0d5d3305e0372ae2eab7b25a08d76a7d3f43bf6135d030409ce6773c3881dda0029",
  "source": "pragma solidity ^0.4.18;\n\nimport 'zeppelin-solidity/contracts/math/Math.sol';\nimport 'zeppelin-solidity/contracts/math/SafeMath.sol';\nimport 'zeppelin-solidity/contracts/ownership/Ownable.sol';\nimport './Bounty0xToken.sol';\nimport './interfaces/Bounty0xPresaleI.sol';\nimport './BntyExchangeRateCalculator.sol';\nimport './KnowsConstants.sol';\n\n/*\nThis contract manages compensation of the presale investors, based on the contribution balances recorded in the presale\ncontract.\n*/\ncontract Bounty0xPresaleDistributor is KnowsConstants, BntyExchangeRateCalculator {\n    using SafeMath for uint;\n\n    Bounty0xPresaleI public deployedPresaleContract;\n    Bounty0xToken public bounty0xToken;\n\n    mapping(address => uint) public tokensPaid;\n\n    function Bounty0xPresaleDistributor(Bounty0xToken _bounty0xToken, Bounty0xPresaleI _deployedPresaleContract)\n        BntyExchangeRateCalculator(MICRO_DOLLARS_PER_BNTY_PRESALE, FIXED_PRESALE_USD_ETHER_PRICE, 0)\n        public\n    {\n        bounty0xToken = _bounty0xToken;\n        deployedPresaleContract = _deployedPresaleContract;\n    }\n\n    event OnPreSaleBuyerCompensated(address indexed contributor, uint numTokens);\n\n    /**\n     * Compensate the presale investors at the addresses provider based on their contributions during the presale\n     */\n    function compensatePreSaleInvestors(address[] preSaleInvestors) public {\n        // iterate through each investor\n        for (uint i = 0; i < preSaleInvestors.length; i++) {\n            address investorAddress = preSaleInvestors[i];\n\n            // the deployed presale contract tracked the balance of each contributor\n            uint weiContributed = deployedPresaleContract.balanceOf(investorAddress);\n\n            // they contributed and haven't been paid\n            if (weiContributed > 0 && tokensPaid[investorAddress] == 0) {\n                // convert the amount of wei they contributed to the bnty\n                uint bntyCompensation = Math.min256(weiToBnty(weiContributed), bounty0xToken.balanceOf(this));\n\n                // mark them paid first\n                tokensPaid[investorAddress] = bntyCompensation;\n\n                // transfer tokens to presale contributor address\n                require(bounty0xToken.transfer(investorAddress, bntyCompensation));\n\n                // log the event\n                OnPreSaleBuyerCompensated(investorAddress, bntyCompensation);\n            }\n        }\n    }\n}\n",
  "sourcePath": "/Users/denizdalkilic/Documents/Blockchain/Bounty0x/Bounty0xTokenSale/contracts/Bounty0xPresaleDistributor.sol",
  "compiler": {
    "name": "solc",
    "version": "0.4.18+commit.9cf6e910.Emscripten.clang"
  },
  "schemaVersion": "1.0.1",
  "updatedAt": "2017-12-15T11:46:33.565Z"
}