{
  "contractName": "KnowsTime",
  "abi": [
    {
      "constant": true,
      "inputs": [],
      "name": "currentTime",
      "outputs": [
        {
          "name": "",
          "type": "uint256"
        }
      ],
      "payable": false,
      "stateMutability": "view",
      "type": "function"
    },
    {
      "inputs": [],
      "payable": false,
      "stateMutability": "nonpayable",
      "type": "constructor"
    }
  ],
  "bytecode": "0x60606040523415600e57600080fd5b609e8061001c6000396000f300606060405260043610603f576000357c0100000000000000000000000000000000000000000000000000000000900463ffffffff168063d18e81b3146044575b600080fd5b3415604e57600080fd5b6054606a565b6040518082815260200191505060405180910390f35b6000429050905600a165627a7a723058203f95bc9401e9fd4571a94e19e0a181c3bec63eaba5de41e698752cd5aa5d257d0029",
  "source": "pragma solidity ^0.4.18;\n\ncontract KnowsTime {\n    function KnowsTime() public {\n    }\n\n    function currentTime() public view returns (uint) {\n        return now;\n    }\n}\n",
  "sourcePath": "/Users/denizdalkilic/Documents/Blockchain/Bounty0x/Bounty0xTokenSale/contracts/KnowsTime.sol",
  "compiler": {
    "name": "solc",
    "version": "0.4.18+commit.9cf6e910.Emscripten.clang"
  },
  "schemaVersion": "1.0.1",
  "updatedAt": "2017-12-15T09:52:09.194Z"
}