{
  "contractName": "KnowsConstants",
  "abi": [
    {
      "constant": true,
      "inputs": [],
      "name": "HARD_CAP_USD",
      "outputs": [
        {
          "name": "",
          "type": "uint256"
        }
      ],
      "payable": false,
      "stateMutability": "view",
      "type": "function"
    },
    {
      "constant": true,
      "inputs": [],
      "name": "MAXIMUM_CONTRIBUTION_WHITELIST_PERIOD_USD",
      "outputs": [
        {
          "name": "",
          "type": "uint256"
        }
      ],
      "payable": false,
      "stateMutability": "view",
      "type": "function"
    },
    {
      "constant": true,
      "inputs": [],
      "name": "MICRO_DOLLARS_PER_BNTY_PRESALE",
      "outputs": [
        {
          "name": "",
          "type": "uint256"
        }
      ],
      "payable": false,
      "stateMutability": "view",
      "type": "function"
    },
    {
      "constant": true,
      "inputs": [],
      "name": "SALE_END_DATE",
      "outputs": [
        {
          "name": "",
          "type": "uint256"
        }
      ],
      "payable": false,
      "stateMutability": "view",
      "type": "function"
    },
    {
      "constant": true,
      "inputs": [],
      "name": "LIMITS_END_DATE",
      "outputs": [
        {
          "name": "",
          "type": "uint256"
        }
      ],
      "payable": false,
      "stateMutability": "view",
      "type": "function"
    },
    {
      "constant": true,
      "inputs": [],
      "name": "UNFREEZE_DATE",
      "outputs": [
        {
          "name": "",
          "type": "uint256"
        }
      ],
      "payable": false,
      "stateMutability": "view",
      "type": "function"
    },
    {
      "constant": true,
      "inputs": [],
      "name": "SALE_START_DATE",
      "outputs": [
        {
          "name": "",
          "type": "uint256"
        }
      ],
      "payable": false,
      "stateMutability": "view",
      "type": "function"
    },
    {
      "constant": true,
      "inputs": [],
      "name": "MAX_GAS",
      "outputs": [
        {
          "name": "",
          "type": "uint256"
        }
      ],
      "payable": false,
      "stateMutability": "view",
      "type": "function"
    },
    {
      "constant": true,
      "inputs": [],
      "name": "WHITELIST_END_DATE",
      "outputs": [
        {
          "name": "",
          "type": "uint256"
        }
      ],
      "payable": false,
      "stateMutability": "view",
      "type": "function"
    },
    {
      "constant": true,
      "inputs": [],
      "name": "MAXIMUM_CONTRIBUTION_LIMITED_PERIOD_USD",
      "outputs": [
        {
          "name": "",
          "type": "uint256"
        }
      ],
      "payable": false,
      "stateMutability": "view",
      "type": "function"
    },
    {
      "constant": true,
      "inputs": [],
      "name": "FIXED_PRESALE_USD_ETHER_PRICE",
      "outputs": [
        {
          "name": "",
          "type": "uint256"
        }
      ],
      "payable": false,
      "stateMutability": "view",
      "type": "function"
    },
    {
      "constant": true,
      "inputs": [],
      "name": "MICRO_DOLLARS_PER_BNTY_MAINSALE",
      "outputs": [
        {
          "name": "",
          "type": "uint256"
        }
      ],
      "payable": false,
      "stateMutability": "view",
      "type": "function"
    },
    {
      "constant": true,
      "inputs": [],
      "name": "MAX_GAS_PRICE",
      "outputs": [
        {
          "name": "",
          "type": "uint256"
        }
      ],
      "payable": false,
      "stateMutability": "view",
      "type": "function"
    },
    {
      "inputs": [],
      "payable": false,
      "stateMutability": "nonpayable",
      "type": "constructor"
    }
  ],
  "bytecode": "0x6060604052341561000f57600080fd5b61037d8061001e6000396000f3006060604052600436106100c5576000357c0100000000000000000000000000000000000000000000000000000000900463ffffffff168063137ce8e3146100ca578063180773de146100f3578063219a6ead1461011c57806327d741df146101455780634e22102b1461016e5780634f27174014610197578063547c1b6a146101c05780635f2a9f41146101e95780636855ded3146102125780638704c6ac1461023b578063a58079fc14610264578063ccb61dad1461028d578063e3bbb4f1146102b6575b600080fd5b34156100d557600080fd5b6100dd6102df565b6040518082815260200191505060405180910390f35b34156100fe57600080fd5b6101066102e6565b6040518082815260200191505060405180910390f35b341561012757600080fd5b61012f6102ec565b6040518082815260200191505060405180910390f35b341561015057600080fd5b6101586102f2565b6040518082815260200191505060405180910390f35b341561017957600080fd5b6101816102ff565b6040518082815260200191505060405180910390f35b34156101a257600080fd5b6101aa61030c565b6040518082815260200191505060405180910390f35b34156101cb57600080fd5b6101d361031a565b6040518082815260200191505060405180910390f35b34156101f457600080fd5b6101fc610322565b6040518082815260200191505060405180910390f35b341561021d57600080fd5b610225610329565b6040518082815260200191505060405180910390f35b341561024657600080fd5b61024e610336565b6040518082815260200191505060405180910390f35b341561026f57600080fd5b61027761033c565b6040518082815260200191505060405180910390f35b341561029857600080fd5b6102a0610342565b6040518082815260200191505060405180910390f35b34156102c157600080fd5b6102c9610348565b6040518082815260200191505060405180910390f35b6216e36081565b6105dc81565b61339081565b6224ea00635a33d5600181565b6202a300635a33d5600181565b6302bd5e00635a33d5600181565b635a33d56081565b6207a12081565b62015180635a33d5600181565b61271081565b61016381565b61407481565b64104c533c00815600a165627a7a72305820e0716c9ec223104be19faaba4ff49a8a0462126e05cf685888310224e3a5a0390029",
  "source": "pragma solidity ^0.4.18;\n\n// These are the specifications of the contract, unlikely to change\ncontract KnowsConstants {\n    // The fixed USD price per BNTY\n    uint public constant FIXED_PRESALE_USD_ETHER_PRICE = 355;\n    uint public constant MICRO_DOLLARS_PER_BNTY_MAINSALE = 16500;\n    uint public constant MICRO_DOLLARS_PER_BNTY_PRESALE = 13200;\n\n    // Contribution constants\n    uint public constant HARD_CAP_USD = 1500000;                           // in USD the maximum total collected amount\n    uint public constant MAXIMUM_CONTRIBUTION_WHITELIST_PERIOD_USD = 1500; // in USD the maximum contribution amount during the whitelist period\n    uint public constant MAXIMUM_CONTRIBUTION_LIMITED_PERIOD_USD = 10000;  // in USD the maximum contribution amount after the whitelist period ends\n    uint public constant MAX_GAS_PRICE = 70 * (10 ** 9);                   // Max gas price of 70 gwei\n    uint public constant MAX_GAS = 500000;                                 // Max gas that can be sent with tx\n\n    // Time constants\n    uint public constant SALE_START_DATE = 1513346400;                    // in unix timestamp Dec 15th @ 15:00 CET\n    uint public constant WHITELIST_END_DATE = SALE_START_DATE + 24 hours; // End whitelist 24 hours after sale start date/time\n    uint public constant LIMITS_END_DATE = SALE_START_DATE + 48 hours;    // End all limits 48 hours after the sale start date\n    uint public constant SALE_END_DATE = SALE_START_DATE + 4 weeks;       // end sale in four weeks\n    uint public constant UNFREEZE_DATE = SALE_START_DATE + 76 weeks;      // Bounty0x Reserve locked for 18 months\n\n    function KnowsConstants() public {}\n}\n",
  "sourcePath": "/Users/denizdalkilic/Documents/Blockchain/Bounty0x/Bounty0xTokenSale/contracts/KnowsConstants.sol",
  "compiler": {
    "name": "solc",
    "version": "0.4.18+commit.9cf6e910.Emscripten.clang"
  },
  "schemaVersion": "1.0.1",
  "updatedAt": "2017-12-15T09:52:09.194Z"
}