{
  "contractName": "MockBntyExchangeRateCalculator",
  "abi": [
    {
      "constant": true,
      "inputs": [],
      "name": "USDEtherPrice",
      "outputs": [
        {
          "name": "",
          "type": "uint256"
        }
      ],
      "payable": false,
      "stateMutability": "view",
      "type": "function"
    },
    {
      "constant": true,
      "inputs": [
        {
          "name": "amtWei",
          "type": "uint256"
        }
      ],
      "name": "weiToBnty",
      "outputs": [
        {
          "name": "",
          "type": "uint256"
        }
      ],
      "payable": false,
      "stateMutability": "view",
      "type": "function"
    },
    {
      "constant": false,
      "inputs": [
        {
          "name": "_time",
          "type": "uint256"
        }
      ],
      "name": "setTime",
      "outputs": [],
      "payable": false,
      "stateMutability": "nonpayable",
      "type": "function"
    },
    {
      "constant": true,
      "inputs": [],
      "name": "fixUSDPriceTime",
      "outputs": [
        {
          "name": "",
          "type": "uint256"
        }
      ],
      "payable": false,
      "stateMutability": "view",
      "type": "function"
    },
    {
      "constant": true,
      "inputs": [],
      "name": "MICRODOLLARS_PER_DOLLAR",
      "outputs": [
        {
          "name": "",
          "type": "uint256"
        }
      ],
      "payable": false,
      "stateMutability": "view",
      "type": "function"
    },
    {
      "constant": true,
      "inputs": [],
      "name": "WEI_PER_ETH",
      "outputs": [
        {
          "name": "",
          "type": "uint256"
        }
      ],
      "payable": false,
      "stateMutability": "view",
      "type": "function"
    },
    {
      "constant": true,
      "inputs": [],
      "name": "owner",
      "outputs": [
        {
          "name": "",
          "type": "address"
        }
      ],
      "payable": false,
      "stateMutability": "view",
      "type": "function"
    },
    {
      "constant": true,
      "inputs": [
        {
          "name": "usd",
          "type": "uint256"
        }
      ],
      "name": "usdToWei",
      "outputs": [
        {
          "name": "",
          "type": "uint256"
        }
      ],
      "payable": false,
      "stateMutability": "view",
      "type": "function"
    },
    {
      "constant": true,
      "inputs": [],
      "name": "bntyMicrodollarPrice",
      "outputs": [
        {
          "name": "",
          "type": "uint256"
        }
      ],
      "payable": false,
      "stateMutability": "view",
      "type": "function"
    },
    {
      "constant": true,
      "inputs": [],
      "name": "currentTime",
      "outputs": [
        {
          "name": "",
          "type": "uint256"
        }
      ],
      "payable": false,
      "stateMutability": "view",
      "type": "function"
    },
    {
      "constant": false,
      "inputs": [
        {
          "name": "_USDEtherPrice",
          "type": "uint256"
        }
      ],
      "name": "setUSDEtherPrice",
      "outputs": [],
      "payable": false,
      "stateMutability": "nonpayable",
      "type": "function"
    },
    {
      "constant": false,
      "inputs": [
        {
          "name": "newOwner",
          "type": "address"
        }
      ],
      "name": "transferOwnership",
      "outputs": [],
      "payable": false,
      "stateMutability": "nonpayable",
      "type": "function"
    },
    {
      "inputs": [
        {
          "name": "_bntyMicrodollarPrice",
          "type": "uint256"
        },
        {
          "name": "_USDEtherPrice",
          "type": "uint256"
        },
        {
          "name": "_fixUSDPriceTime",
          "type": "uint256"
        }
      ],
      "payable": false,
      "stateMutability": "nonpayable",
      "type": "constructor"
    },
    {
      "anonymous": false,
      "inputs": [
        {
          "indexed": true,
          "name": "previousOwner",
          "type": "address"
        },
        {
          "indexed": true,
          "name": "newOwner",
          "type": "address"
        }
      ],
      "name": "OwnershipTransferred",
      "type": "event"
    }
  ],
  "bytecode": "0x6060604052341561000f57600080fd5b60405160608061070583398101604052808051906020019091908051906020019091908051906020019091905050828282336000806101000a81548173ffffffffffffffffffffffffffffffffffffffff021916908373ffffffffffffffffffffffffffffffffffffffff16021790555060008311151561008f57600080fd5b60008211151561009e57600080fd5b82600181905550806003819055508160028190555050505042600481905550505050610636806100cf6000396000f3006060604052600436106100ba576000357c0100000000000000000000000000000000000000000000000000000000900463ffffffff1680630563bbf6146100bf5780632f1a8177146100e85780633beb26c41461011f57806356639a8e146101425780636fa65c4f1461016b57806374ffdcd0146101945780638da5cb5b146101bd578063a6a8613014610212578063b8d415c914610249578063d18e81b314610272578063e79fb53c1461029b578063f2fde38b146102be575b600080fd5b34156100ca57600080fd5b6100d26102f7565b6040518082815260200191505060405180910390f35b34156100f357600080fd5b61010960048080359060200190919050506102fd565b6040518082815260200191505060405180910390f35b341561012a57600080fd5b6101406004808035906020019091905050610344565b005b341561014d57600080fd5b61015561034e565b6040518082815260200191505060405180910390f35b341561017657600080fd5b61017e610354565b6040518082815260200191505060405180910390f35b341561019f57600080fd5b6101a761035b565b6040518082815260200191505060405180910390f35b34156101c857600080fd5b6101d0610367565b604051808273ffffffffffffffffffffffffffffffffffffffff1673ffffffffffffffffffffffffffffffffffffffff16815260200191505060405180910390f35b341561021d57600080fd5b610233600480803590602001909190505061038c565b6040518082815260200191505060405180910390f35b341561025457600080fd5b61025c6103c4565b6040518082815260200191505060405180910390f35b341561027d57600080fd5b6102856103ca565b6040518082815260200191505060405180910390f35b34156102a657600080fd5b6102bc60048080359060200190919050506103d4565b005b34156102c957600080fd5b6102f5600480803573ffffffffffffffffffffffffffffffffffffffff1690602001909190505061045f565b005b60025481565b600061033d60015461032f84610321620f42406002546105b490919063ffffffff16565b6105b490919063ffffffff16565b6105ef90919063ffffffff16565b9050919050565b8060048190555050565b60035481565b620f424081565b670de0b6b3a764000081565b6000809054906101000a900473ffffffffffffffffffffffffffffffffffffffff1681565b60006103bd6002546103af84670de0b6b3a76400006105b490919063ffffffff16565b6105ef90919063ffffffff16565b9050919050565b60015481565b6000600454905090565b6000809054906101000a900473ffffffffffffffffffffffffffffffffffffffff1673ffffffffffffffffffffffffffffffffffffffff163373ffffffffffffffffffffffffffffffffffffffff1614151561042f57600080fd5b60035461043a6103ca565b10151561044657600080fd5b60008111151561045557600080fd5b8060028190555050565b6000809054906101000a900473ffffffffffffffffffffffffffffffffffffffff1673ffffffffffffffffffffffffffffffffffffffff163373ffffffffffffffffffffffffffffffffffffffff161415156104ba57600080fd5b600073ffffffffffffffffffffffffffffffffffffffff168173ffffffffffffffffffffffffffffffffffffffff16141515156104f657600080fd5b8073ffffffffffffffffffffffffffffffffffffffff166000809054906101000a900473ffffffffffffffffffffffffffffffffffffffff1673ffffffffffffffffffffffffffffffffffffffff167f8be0079c531659141344cd1fd0a4f28419497f9722a3daafe3b4186f6b6457e060405160405180910390a3806000806101000a81548173ffffffffffffffffffffffffffffffffffffffff021916908373ffffffffffffffffffffffffffffffffffffffff16021790555050565b60008060008414156105c957600091506105e8565b82840290508284828115156105da57fe5b041415156105e457fe5b8091505b5092915050565b60008082848115156105fd57fe5b04905080915050929150505600a165627a7a72305820a33be30d180838cb018e51c4a04b0a503416506e3f9686015a4e4a4e40aa53b60029",
  "source": "pragma solidity ^0.4.18;\n\n\nimport '../BntyExchangeRateCalculator.sol';\nimport './MockKnowsTime.sol';\n\n\n// Just overwrites the currentTime() method so we can change the time for mocks\ncontract MockBntyExchangeRateCalculator is BntyExchangeRateCalculator, MockKnowsTime {\n    function MockBntyExchangeRateCalculator(uint _bntyMicrodollarPrice, uint _USDEtherPrice, uint _fixUSDPriceTime)\n    BntyExchangeRateCalculator(_bntyMicrodollarPrice, _USDEtherPrice, _fixUSDPriceTime)\n    public\n    {}\n}\n",
  "sourcePath": "/Users/denizdalkilic/Documents/Blockchain/Bounty0x/Bounty0xTokenSale/contracts/mocks/MockBntyExchangeRateCalculator.sol",
  "compiler": {
    "name": "solc",
    "version": "0.4.18+commit.9cf6e910.Emscripten.clang"
  },
  "schemaVersion": "1.0.1",
  "updatedAt": "2017-12-15T09:52:09.195Z"
}