{
  "contractName": "MockKnowsTime",
  "abi": [
    {
      "constant": false,
      "inputs": [
        {
          "name": "_time",
          "type": "uint256"
        }
      ],
      "name": "setTime",
      "outputs": [],
      "payable": false,
      "stateMutability": "nonpayable",
      "type": "function"
    },
    {
      "constant": true,
      "inputs": [],
      "name": "currentTime",
      "outputs": [
        {
          "name": "",
          "type": "uint256"
        }
      ],
      "payable": false,
      "stateMutability": "view",
      "type": "function"
    },
    {
      "inputs": [],
      "payable": false,
      "stateMutability": "nonpayable",
      "type": "constructor"
    }
  ],
  "bytecode": "0x6060604052341561000f57600080fd5b4260008190555060d3806100246000396000f3006060604052600436106049576000357c0100000000000000000000000000000000000000000000000000000000900463ffffffff1680633beb26c414604e578063d18e81b314606e575b600080fd5b3415605857600080fd5b606c60048080359060200190919050506094565b005b3415607857600080fd5b607e609e565b6040518082815260200191505060405180910390f35b8060008190555050565b600080549050905600a165627a7a7230582083043acd72473178538152aed938f3f9e71a260f3272ad00286d4720b673c70c0029",
  "source": "pragma solidity ^0.4.18;\n\nimport '../KnowsTime.sol';\n\n// This mock contract is used to test contracts that rely on the current time\ncontract MockKnowsTime is KnowsTime {\n    uint time;\n\n    function MockKnowsTime() public {\n        time = now;\n    }\n\n    function setTime(uint _time) public {\n        time = _time;\n    }\n\n    function currentTime() public view returns (uint) {\n        return time;\n    }\n}\n",
  "sourcePath": "/Users/denizdalkilic/Documents/Blockchain/Bounty0x/Bounty0xTokenSale/contracts/mocks/MockKnowsTime.sol",
  "compiler": {
    "name": "solc",
    "version": "0.4.18+commit.9cf6e910.Emscripten.clang"
  },
  "schemaVersion": "1.0.1",
  "updatedAt": "2017-12-15T09:52:09.195Z"
}