{
  "contractName": "MockBounty0xPresale",
  "abi": [
    {
      "constant": true,
      "inputs": [
        {
          "name": "",
          "type": "address"
        }
      ],
      "name": "contributions",
      "outputs": [
        {
          "name": "",
          "type": "uint256"
        }
      ],
      "payable": false,
      "stateMutability": "view",
      "type": "function"
    },
    {
      "constant": false,
      "inputs": [
        {
          "name": "addr",
          "type": "address"
        }
      ],
      "name": "balanceOf",
      "outputs": [
        {
          "name": "balance",
          "type": "uint256"
        }
      ],
      "payable": false,
      "stateMutability": "nonpayable",
      "type": "function"
    },
    {
      "inputs": [
        {
          "name": "contributors",
          "type": "address[]"
        },
        {
          "name": "amounts",
          "type": "uint256[]"
        }
      ],
      "payable": false,
      "stateMutability": "nonpayable",
      "type": "constructor"
    }
  ],
  "bytecode": "0x6060604052341561000f57600080fd5b60405161024a38038061024a8339810160405280805182019190602001805182019190505060008090505b82518110156100c157818181518110151561005157fe5b90602001906020020151600080858481518110151561006c57fe5b9060200190602002015173ffffffffffffffffffffffffffffffffffffffff1673ffffffffffffffffffffffffffffffffffffffff16815260200190815260200160002081905550808060010191505061003a565b505050610177806100d36000396000f30060606040526004361061004c576000357c0100000000000000000000000000000000000000000000000000000000900463ffffffff16806342e94c901461005157806370a082311461009e575b600080fd5b341561005c57600080fd5b610088600480803573ffffffffffffffffffffffffffffffffffffffff169060200190919050506100eb565b6040518082815260200191505060405180910390f35b34156100a957600080fd5b6100d5600480803573ffffffffffffffffffffffffffffffffffffffff16906020019091905050610103565b6040518082815260200191505060405180910390f35b60006020528060005260406000206000915090505481565b60008060008373ffffffffffffffffffffffffffffffffffffffff1673ffffffffffffffffffffffffffffffffffffffff1681526020019081526020016000205490509190505600a165627a7a72305820c4566f0bd593fb682eaf61d5dcd21d927cd909dfa01250b4a3df6af87dd9b3680029",
  "source": "pragma solidity ^0.4.18;\n\nimport '../interfaces/Bounty0xPresaleI.sol';\n\n// Mock presale contract used for testing the presale distributor\ncontract MockBounty0xPresale is Bounty0xPresaleI {\n\n    mapping (address => uint) public contributions;\n\n    function MockBounty0xPresale(address[] contributors, uint[] amounts) public {\n        for (uint i = 0; i < contributors.length; i++) {\n            contributions[contributors[i]] = amounts[i];\n        }\n    }\n\n    function balanceOf(address addr) public returns (uint balance) {\n        return contributions[addr];\n    }\n\n}\n",
  "sourcePath": "/Users/denizdalkilic/Documents/Blockchain/Bounty0x/Bounty0xTokenSale/contracts/mocks/MockBounty0xPresale.sol",
  "compiler": {
    "name": "solc",
    "version": "0.4.18+commit.9cf6e910.Emscripten.clang"
  },
  "schemaVersion": "1.0.1",
  "updatedAt": "2017-12-15T09:52:09.195Z"
}