{
  "contractName": "MockBounty0xReserveHolder",
  "abi": [
    {
      "constant": true,
      "inputs": [],
      "name": "HARD_CAP_USD",
      "outputs": [
        {
          "name": "",
          "type": "uint256"
        }
      ],
      "payable": false,
      "stateMutability": "view",
      "type": "function"
    },
    {
      "constant": true,
      "inputs": [],
      "name": "MAXIMUM_CONTRIBUTION_WHITELIST_PERIOD_USD",
      "outputs": [
        {
          "name": "",
          "type": "uint256"
        }
      ],
      "payable": false,
      "stateMutability": "view",
      "type": "function"
    },
    {
      "constant": true,
      "inputs": [],
      "name": "MICRO_DOLLARS_PER_BNTY_PRESALE",
      "outputs": [
        {
          "name": "",
          "type": "uint256"
        }
      ],
      "payable": false,
      "stateMutability": "view",
      "type": "function"
    },
    {
      "constant": true,
      "inputs": [],
      "name": "SALE_END_DATE",
      "outputs": [
        {
          "name": "",
          "type": "uint256"
        }
      ],
      "payable": false,
      "stateMutability": "view",
      "type": "function"
    },
    {
      "constant": true,
      "inputs": [],
      "name": "beneficiary",
      "outputs": [
        {
          "name": "",
          "type": "address"
        }
      ],
      "payable": false,
      "stateMutability": "view",
      "type": "function"
    },
    {
      "constant": false,
      "inputs": [
        {
          "name": "_time",
          "type": "uint256"
        }
      ],
      "name": "setTime",
      "outputs": [],
      "payable": false,
      "stateMutability": "nonpayable",
      "type": "function"
    },
    {
      "constant": true,
      "inputs": [],
      "name": "LIMITS_END_DATE",
      "outputs": [
        {
          "name": "",
          "type": "uint256"
        }
      ],
      "payable": false,
      "stateMutability": "view",
      "type": "function"
    },
    {
      "constant": true,
      "inputs": [],
      "name": "UNFREEZE_DATE",
      "outputs": [
        {
          "name": "",
          "type": "uint256"
        }
      ],
      "payable": false,
      "stateMutability": "view",
      "type": "function"
    },
    {
      "constant": true,
      "inputs": [],
      "name": "SALE_START_DATE",
      "outputs": [
        {
          "name": "",
          "type": "uint256"
        }
      ],
      "payable": false,
      "stateMutability": "view",
      "type": "function"
    },
    {
      "constant": true,
      "inputs": [],
      "name": "MAX_GAS",
      "outputs": [
        {
          "name": "",
          "type": "uint256"
        }
      ],
      "payable": false,
      "stateMutability": "view",
      "type": "function"
    },
    {
      "constant": true,
      "inputs": [],
      "name": "WHITELIST_END_DATE",
      "outputs": [
        {
          "name": "",
          "type": "uint256"
        }
      ],
      "payable": false,
      "stateMutability": "view",
      "type": "function"
    },
    {
      "constant": false,
      "inputs": [],
      "name": "release",
      "outputs": [],
      "payable": false,
      "stateMutability": "nonpayable",
      "type": "function"
    },
    {
      "constant": true,
      "inputs": [],
      "name": "MAXIMUM_CONTRIBUTION_LIMITED_PERIOD_USD",
      "outputs": [
        {
          "name": "",
          "type": "uint256"
        }
      ],
      "payable": false,
      "stateMutability": "view",
      "type": "function"
    },
    {
      "constant": true,
      "inputs": [],
      "name": "FIXED_PRESALE_USD_ETHER_PRICE",
      "outputs": [
        {
          "name": "",
          "type": "uint256"
        }
      ],
      "payable": false,
      "stateMutability": "view",
      "type": "function"
    },
    {
      "constant": true,
      "inputs": [],
      "name": "MICRO_DOLLARS_PER_BNTY_MAINSALE",
      "outputs": [
        {
          "name": "",
          "type": "uint256"
        }
      ],
      "payable": false,
      "stateMutability": "view",
      "type": "function"
    },
    {
      "constant": true,
      "inputs": [],
      "name": "currentTime",
      "outputs": [
        {
          "name": "",
          "type": "uint256"
        }
      ],
      "payable": false,
      "stateMutability": "view",
      "type": "function"
    },
    {
      "constant": true,
      "inputs": [],
      "name": "MAX_GAS_PRICE",
      "outputs": [
        {
          "name": "",
          "type": "uint256"
        }
      ],
      "payable": false,
      "stateMutability": "view",
      "type": "function"
    },
    {
      "constant": true,
      "inputs": [],
      "name": "token",
      "outputs": [
        {
          "name": "",
          "type": "address"
        }
      ],
      "payable": false,
      "stateMutability": "view",
      "type": "function"
    },
    {
      "inputs": [
        {
          "name": "_token",
          "type": "address"
        },
        {
          "name": "_beneficiary",
          "type": "address"
        }
      ],
      "payable": false,
      "stateMutability": "nonpayable",
      "type": "constructor"
    }
  ],
  "bytecode": "0x6060604052341561000f57600080fd5b604051604080610890833981016040528080519060200190919080519060200190919050508181600073ffffffffffffffffffffffffffffffffffffffff168273ffffffffffffffffffffffffffffffffffffffff161415151561007257600080fd5b600073ffffffffffffffffffffffffffffffffffffffff168173ffffffffffffffffffffffffffffffffffffffff16141515156100ae57600080fd5b816000806101000a81548173ffffffffffffffffffffffffffffffffffffffff021916908373ffffffffffffffffffffffffffffffffffffffff16021790555080600160006101000a81548173ffffffffffffffffffffffffffffffffffffffff021916908373ffffffffffffffffffffffffffffffffffffffff1602179055505050426002819055505050610747806101496000396000f3006060604052600436106100fc576000357c0100000000000000000000000000000000000000000000000000000000900463ffffffff168063137ce8e314610101578063180773de1461012a578063219a6ead1461015357806327d741df1461017c57806338af3eed146101a55780633beb26c4146101fa5780634e22102b1461021d5780634f27174014610246578063547c1b6a1461026f5780635f2a9f41146102985780636855ded3146102c157806386d1a69f146102ea5780638704c6ac146102ff578063a58079fc14610328578063ccb61dad14610351578063d18e81b31461037a578063e3bbb4f1146103a3578063fc0c546a146103cc575b600080fd5b341561010c57600080fd5b610114610421565b6040518082815260200191505060405180910390f35b341561013557600080fd5b61013d610428565b6040518082815260200191505060405180910390f35b341561015e57600080fd5b61016661042e565b6040518082815260200191505060405180910390f35b341561018757600080fd5b61018f610434565b6040518082815260200191505060405180910390f35b34156101b057600080fd5b6101b8610441565b604051808273ffffffffffffffffffffffffffffffffffffffff1673ffffffffffffffffffffffffffffffffffffffff16815260200191505060405180910390f35b341561020557600080fd5b61021b6004808035906020019091905050610467565b005b341561022857600080fd5b610230610471565b6040518082815260200191505060405180910390f35b341561025157600080fd5b61025961047e565b6040518082815260200191505060405180910390f35b341561027a57600080fd5b61028261048c565b6040518082815260200191505060405180910390f35b34156102a357600080fd5b6102ab610494565b6040518082815260200191505060405180910390f35b34156102cc57600080fd5b6102d461049b565b6040518082815260200191505060405180910390f35b34156102f557600080fd5b6102fd6104a8565b005b341561030a57600080fd5b6103126106d1565b6040518082815260200191505060405180910390f35b341561033357600080fd5b61033b6106d7565b6040518082815260200191505060405180910390f35b341561035c57600080fd5b6103646106dd565b6040518082815260200191505060405180910390f35b341561038557600080fd5b61038d6106e3565b6040518082815260200191505060405180910390f35b34156103ae57600080fd5b6103b66106ed565b6040518082815260200191505060405180910390f35b34156103d757600080fd5b6103df6106f6565b604051808273ffffffffffffffffffffffffffffffffffffffff1673ffffffffffffffffffffffffffffffffffffffff16815260200191505060405180910390f35b6216e36081565b6105dc81565b61339081565b6224ea00635a33d5600181565b600160009054906101000a900473ffffffffffffffffffffffffffffffffffffffff1681565b8060028190555050565b6202a300635a33d5600181565b6302bd5e00635a33d5600181565b635a33d56081565b6207a12081565b62015180635a33d5600181565b60006302bd5e00635a33d560016104bd6106e3565b101515156104ca57600080fd5b6000809054906101000a900473ffffffffffffffffffffffffffffffffffffffff1673ffffffffffffffffffffffffffffffffffffffff166370a08231306000604051602001526040518263ffffffff167c0100000000000000000000000000000000000000000000000000000000028152600401808273ffffffffffffffffffffffffffffffffffffffff1673ffffffffffffffffffffffffffffffffffffffff168152602001915050602060405180830381600087803b151561058e57600080fd5b6102c65a03f1151561059f57600080fd5b5050506040518051905090506000811115156105ba57600080fd5b6000809054906101000a900473ffffffffffffffffffffffffffffffffffffffff1673ffffffffffffffffffffffffffffffffffffffff1663a9059cbb600160009054906101000a900473ffffffffffffffffffffffffffffffffffffffff16836000604051602001526040518363ffffffff167c0100000000000000000000000000000000000000000000000000000000028152600401808373ffffffffffffffffffffffffffffffffffffffff1673ffffffffffffffffffffffffffffffffffffffff16815260200182815260200192505050602060405180830381600087803b15156106a857600080fd5b6102c65a03f115156106b957600080fd5b5050506040518051905015156106ce57600080fd5b50565b61271081565b61016381565b61407481565b6000600254905090565b64104c533c0081565b6000809054906101000a900473ffffffffffffffffffffffffffffffffffffffff16815600a165627a7a72305820e6e0dd9b321b286cd94f41c6c0645f553544e06d78b17d6e3da2847e72f2ab950029",
  "source": "pragma solidity ^0.4.18;\n\nimport '../Bounty0xReserveHolder.sol';\nimport './MockKnowsTime.sol';\n\n// Just overwrites the currentTime() method so we can change the time for mocks\ncontract MockBounty0xReserveHolder is Bounty0xReserveHolder, MockKnowsTime {\n    function MockBounty0xReserveHolder(Bounty0xToken _token, address _beneficiary)\n        Bounty0xReserveHolder(_token, _beneficiary)\n        public\n    {}\n}\n",
  "sourcePath": "/Users/denizdalkilic/Documents/Blockchain/Bounty0x/Bounty0xTokenSale/contracts/mocks/MockBounty0xReserveHolder.sol",
  "compiler": {
    "name": "solc",
    "version": "0.4.18+commit.9cf6e910.Emscripten.clang"
  },
  "schemaVersion": "1.0.1",
  "updatedAt": "2017-12-15T09:52:09.195Z"
}