{
  "contractName": "MockBounty0xCrowdsale",
  "abi": [
    {
      "constant": true,
      "inputs": [],
      "name": "USDEtherPrice",
      "outputs": [
        {
          "name": "",
          "type": "uint256"
        }
      ],
      "payable": false,
      "stateMutability": "view",
      "type": "function"
    },
    {
      "constant": true,
      "inputs": [],
      "name": "HARD_CAP_USD",
      "outputs": [
        {
          "name": "",
          "type": "uint256"
        }
      ],
      "payable": false,
      "stateMutability": "view",
      "type": "function"
    },
    {
      "constant": true,
      "inputs": [],
      "name": "MAXIMUM_CONTRIBUTION_WHITELIST_PERIOD_USD",
      "outputs": [
        {
          "name": "",
          "type": "uint256"
        }
      ],
      "payable": false,
      "stateMutability": "view",
      "type": "function"
    },
    {
      "constant": true,
      "inputs": [],
      "name": "MICRO_DOLLARS_PER_BNTY_PRESALE",
      "outputs": [
        {
          "name": "",
          "type": "uint256"
        }
      ],
      "payable": false,
      "stateMutability": "view",
      "type": "function"
    },
    {
      "constant": true,
      "inputs": [],
      "name": "SALE_END_DATE",
      "outputs": [
        {
          "name": "",
          "type": "uint256"
        }
      ],
      "payable": false,
      "stateMutability": "view",
      "type": "function"
    },
    {
      "constant": false,
      "inputs": [
        {
          "name": "amount",
          "type": "uint256"
        }
      ],
      "name": "withdraw",
      "outputs": [],
      "payable": false,
      "stateMutability": "nonpayable",
      "type": "function"
    },
    {
      "constant": true,
      "inputs": [
        {
          "name": "amtWei",
          "type": "uint256"
        }
      ],
      "name": "weiToBnty",
      "outputs": [
        {
          "name": "",
          "type": "uint256"
        }
      ],
      "payable": false,
      "stateMutability": "view",
      "type": "function"
    },
    {
      "constant": true,
      "inputs": [],
      "name": "totalContributions",
      "outputs": [
        {
          "name": "",
          "type": "uint256"
        }
      ],
      "payable": false,
      "stateMutability": "view",
      "type": "function"
    },
    {
      "constant": true,
      "inputs": [
        {
          "name": "addr",
          "type": "address"
        }
      ],
      "name": "isWhitelisted",
      "outputs": [
        {
          "name": "",
          "type": "bool"
        }
      ],
      "payable": false,
      "stateMutability": "view",
      "type": "function"
    },
    {
      "constant": false,
      "inputs": [
        {
          "name": "_time",
          "type": "uint256"
        }
      ],
      "name": "setTime",
      "outputs": [],
      "payable": false,
      "stateMutability": "nonpayable",
      "type": "function"
    },
    {
      "constant": false,
      "inputs": [],
      "name": "unpause",
      "outputs": [],
      "payable": false,
      "stateMutability": "nonpayable",
      "type": "function"
    },
    {
      "constant": true,
      "inputs": [],
      "name": "LIMITS_END_DATE",
      "outputs": [
        {
          "name": "",
          "type": "uint256"
        }
      ],
      "payable": false,
      "stateMutability": "view",
      "type": "function"
    },
    {
      "constant": true,
      "inputs": [],
      "name": "UNFREEZE_DATE",
      "outputs": [
        {
          "name": "",
          "type": "uint256"
        }
      ],
      "payable": false,
      "stateMutability": "view",
      "type": "function"
    },
    {
      "constant": true,
      "inputs": [],
      "name": "bounty0xToken",
      "outputs": [
        {
          "name": "",
          "type": "address"
        }
      ],
      "payable": false,
      "stateMutability": "view",
      "type": "function"
    },
    {
      "constant": true,
      "inputs": [],
      "name": "SALE_START_DATE",
      "outputs": [
        {
          "name": "",
          "type": "uint256"
        }
      ],
      "payable": false,
      "stateMutability": "view",
      "type": "function"
    },
    {
      "constant": false,
      "inputs": [
        {
          "name": "addresses",
          "type": "address[]"
        }
      ],
      "name": "removeFromWhitelist",
      "outputs": [
        {
          "name": "",
          "type": "bool"
        }
      ],
      "payable": false,
      "stateMutability": "nonpayable",
      "type": "function"
    },
    {
      "constant": true,
      "inputs": [],
      "name": "fixUSDPriceTime",
      "outputs": [
        {
          "name": "",
          "type": "uint256"
        }
      ],
      "payable": false,
      "stateMutability": "view",
      "type": "function"
    },
    {
      "constant": true,
      "inputs": [],
      "name": "paused",
      "outputs": [
        {
          "name": "",
          "type": "bool"
        }
      ],
      "payable": false,
      "stateMutability": "view",
      "type": "function"
    },
    {
      "constant": true,
      "inputs": [],
      "name": "MAX_GAS",
      "outputs": [
        {
          "name": "",
          "type": "uint256"
        }
      ],
      "payable": false,
      "stateMutability": "view",
      "type": "function"
    },
    {
      "constant": true,
      "inputs": [],
      "name": "WHITELIST_END_DATE",
      "outputs": [
        {
          "name": "",
          "type": "uint256"
        }
      ],
      "payable": false,
      "stateMutability": "view",
      "type": "function"
    },
    {
      "constant": true,
      "inputs": [],
      "name": "MICRODOLLARS_PER_DOLLAR",
      "outputs": [
        {
          "name": "",
          "type": "uint256"
        }
      ],
      "payable": false,
      "stateMutability": "view",
      "type": "function"
    },
    {
      "constant": true,
      "inputs": [],
      "name": "WEI_PER_ETH",
      "outputs": [
        {
          "name": "",
          "type": "uint256"
        }
      ],
      "payable": false,
      "stateMutability": "view",
      "type": "function"
    },
    {
      "constant": false,
      "inputs": [
        {
          "name": "addresses",
          "type": "address[]"
        }
      ],
      "name": "addToWhitelist",
      "outputs": [
        {
          "name": "",
          "type": "bool"
        }
      ],
      "payable": false,
      "stateMutability": "nonpayable",
      "type": "function"
    },
    {
      "constant": false,
      "inputs": [],
      "name": "pause",
      "outputs": [],
      "payable": false,
      "stateMutability": "nonpayable",
      "type": "function"
    },
    {
      "constant": true,
      "inputs": [],
      "name": "MAXIMUM_CONTRIBUTION_LIMITED_PERIOD_USD",
      "outputs": [
        {
          "name": "",
          "type": "uint256"
        }
      ],
      "payable": false,
      "stateMutability": "view",
      "type": "function"
    },
    {
      "constant": true,
      "inputs": [],
      "name": "owner",
      "outputs": [
        {
          "name": "",
          "type": "address"
        }
      ],
      "payable": false,
      "stateMutability": "view",
      "type": "function"
    },
    {
      "constant": true,
      "inputs": [
        {
          "name": "",
          "type": "address"
        }
      ],
      "name": "contributionAmounts",
      "outputs": [
        {
          "name": "",
          "type": "uint256"
        }
      ],
      "payable": false,
      "stateMutability": "view",
      "type": "function"
    },
    {
      "constant": true,
      "inputs": [],
      "name": "FIXED_PRESALE_USD_ETHER_PRICE",
      "outputs": [
        {
          "name": "",
          "type": "uint256"
        }
      ],
      "payable": false,
      "stateMutability": "view",
      "type": "function"
    },
    {
      "constant": true,
      "inputs": [
        {
          "name": "usd",
          "type": "uint256"
        }
      ],
      "name": "usdToWei",
      "outputs": [
        {
          "name": "",
          "type": "uint256"
        }
      ],
      "payable": false,
      "stateMutability": "view",
      "type": "function"
    },
    {
      "constant": true,
      "inputs": [],
      "name": "bntyMicrodollarPrice",
      "outputs": [
        {
          "name": "",
          "type": "uint256"
        }
      ],
      "payable": false,
      "stateMutability": "view",
      "type": "function"
    },
    {
      "constant": true,
      "inputs": [],
      "name": "MICRO_DOLLARS_PER_BNTY_MAINSALE",
      "outputs": [
        {
          "name": "",
          "type": "uint256"
        }
      ],
      "payable": false,
      "stateMutability": "view",
      "type": "function"
    },
    {
      "constant": true,
      "inputs": [],
      "name": "currentTime",
      "outputs": [
        {
          "name": "",
          "type": "uint256"
        }
      ],
      "payable": false,
      "stateMutability": "view",
      "type": "function"
    },
    {
      "constant": true,
      "inputs": [
        {
          "name": "",
          "type": "address"
        }
      ],
      "name": "whitelisted",
      "outputs": [
        {
          "name": "",
          "type": "bool"
        }
      ],
      "payable": false,
      "stateMutability": "view",
      "type": "function"
    },
    {
      "constant": true,
      "inputs": [],
      "name": "MAX_GAS_PRICE",
      "outputs": [
        {
          "name": "",
          "type": "uint256"
        }
      ],
      "payable": false,
      "stateMutability": "view",
      "type": "function"
    },
    {
      "constant": false,
      "inputs": [
        {
          "name": "_USDEtherPrice",
          "type": "uint256"
        }
      ],
      "name": "setUSDEtherPrice",
      "outputs": [],
      "payable": false,
      "stateMutability": "nonpayable",
      "type": "function"
    },
    {
      "constant": false,
      "inputs": [
        {
          "name": "newOwner",
          "type": "address"
        }
      ],
      "name": "transferOwnership",
      "outputs": [],
      "payable": false,
      "stateMutability": "nonpayable",
      "type": "function"
    },
    {
      "inputs": [
        {
          "name": "_bounty0xToken",
          "type": "address"
        },
        {
          "name": "_USDEtherPrice",
          "type": "uint256"
        }
      ],
      "payable": false,
      "stateMutability": "nonpayable",
      "type": "constructor"
    },
    {
      "payable": true,
      "stateMutability": "payable",
      "type": "fallback"
    },
    {
      "anonymous": false,
      "inputs": [
        {
          "indexed": true,
          "name": "contributor",
          "type": "address"
        },
        {
          "indexed": true,
          "name": "duringWhitelistPeriod",
          "type": "bool"
        },
        {
          "indexed": true,
          "name": "contributedWei",
          "type": "uint256"
        },
        {
          "indexed": false,
          "name": "bntyAwarded",
          "type": "uint256"
        },
        {
          "indexed": false,
          "name": "refundedWei",
          "type": "uint256"
        }
      ],
      "name": "OnContribution",
      "type": "event"
    },
    {
      "anonymous": false,
      "inputs": [
        {
          "indexed": false,
          "name": "to",
          "type": "address"
        },
        {
          "indexed": false,
          "name": "amount",
          "type": "uint256"
        }
      ],
      "name": "OnWithdraw",
      "type": "event"
    },
    {
      "anonymous": false,
      "inputs": [],
      "name": "Pause",
      "type": "event"
    },
    {
      "anonymous": false,
      "inputs": [],
      "name": "Unpause",
      "type": "event"
    },
    {
      "anonymous": false,
      "inputs": [
        {
          "indexed": true,
          "name": "addr",
          "type": "address"
        }
      ],
      "name": "LogWhitelistAdd",
      "type": "event"
    },
    {
      "anonymous": false,
      "inputs": [
        {
          "indexed": true,
          "name": "addr",
          "type": "address"
        }
      ],
      "name": "LogWhitelistRemove",
      "type": "event"
    },
    {
      "anonymous": false,
      "inputs": [
        {
          "indexed": true,
          "name": "previousOwner",
          "type": "address"
        },
        {
          "indexed": true,
          "name": "newOwner",
          "type": "address"
        }
      ],
      "name": "OwnershipTransferred",
      "type": "event"
    }
  ],
  "bytecode": "0x60606040526000600560006101000a81548160ff021916908315150217905550341561002a57600080fd5b6040516040806119e983398101604052808051906020019091908051906020019091905050818161407481635a33d560336000806101000a81548173ffffffffffffffffffffffffffffffffffffffff021916908373ffffffffffffffffffffffffffffffffffffffff1602179055506000831115156100a957600080fd5b6000821115156100b857600080fd5b82600181905550806003819055508160028190555050505081600560016101000a81548173ffffffffffffffffffffffffffffffffffffffff021916908373ffffffffffffffffffffffffffffffffffffffff16021790555050504260088190555050506118be8061012b6000396000f3006060604052600436106101c2576000357c0100000000000000000000000000000000000000000000000000000000900463ffffffff1680630563bbf6146106e3578063137ce8e31461070c578063180773de14610735578063219a6ead1461075e57806327d741df146107875780632e1a7d4d146107b05780632f1a8177146107d357806337c089231461080a5780633af32abf146108335780633beb26c4146108845780633f4ba83a146108a75780634e22102b146108bc5780634f271740146108e557806352e32a551461090e578063547c1b6a14610963578063548db1741461098c57806356639a8e146109fe5780635c975abb14610a275780635f2a9f4114610a545780636855ded314610a7d5780636fa65c4f14610aa657806374ffdcd014610acf5780637f64978314610af85780638456cb5914610b6a5780638704c6ac14610b7f5780638da5cb5b14610ba85780639223de0514610bfd578063a58079fc14610c4a578063a6a8613014610c73578063b8d415c914610caa578063ccb61dad14610cd3578063d18e81b314610cfc578063d936547e14610d25578063e3bbb4f114610d76578063e79fb53c14610d9f578063f2fde38b14610dc2575b600080600080600080600560009054906101000a900460ff161515156101e757600080fd5b6101ef610dfb565b9550635a33d560861015151561020457600080fd5b6224ea00635a33d560018610151561021b57600080fd5b61023b60075461022d6216e360610e05565b610e3d90919063ffffffff16565b945062015180635a33d56001861093506202a300635a33d560018610156103715764104c533c003a1115151561027057600080fd5b6207a1205a1115151561028257600080fd5b83156103085761029133610e56565b151561029c57600080fd5b610301856102fc600660003373ffffffffffffffffffffffffffffffffffffffff1673ffffffffffffffffffffffffffffffffffffffff168152602001908152602001600020546102ee6105dc610e05565b610e3d90919063ffffffff16565b610eac565b9450610370565b61036d85610368600660003373ffffffffffffffffffffffffffffffffffffffff1673ffffffffffffffffffffffffffffffffffffffff1681526020019081526020016000205461035a612710610e05565b610e3d90919063ffffffff16565b610eac565b94505b5b61037b3486610eac565b92506103908334610e3d90919063ffffffff16565b91506000831115156103a157600080fd5b6103b683600754610ec590919063ffffffff16565b60078190555061040e83600660003373ffffffffffffffffffffffffffffffffffffffff1673ffffffffffffffffffffffffffffffffffffffff16815260200190815260200160002054610ec590919063ffffffff16565b600660003373ffffffffffffffffffffffffffffffffffffffff1673ffffffffffffffffffffffffffffffffffffffff1681526020019081526020016000208190555061054261045d84610ee3565b600560019054906101000a900473ffffffffffffffffffffffffffffffffffffffff1673ffffffffffffffffffffffffffffffffffffffff166370a08231306000604051602001526040518263ffffffff167c0100000000000000000000000000000000000000000000000000000000028152600401808273ffffffffffffffffffffffffffffffffffffffff1673ffffffffffffffffffffffffffffffffffffffff168152602001915050602060405180830381600087803b151561052257600080fd5b6102c65a03f1151561053357600080fd5b50505060405180519050610eac565b9050600560019054906101000a900473ffffffffffffffffffffffffffffffffffffffff1673ffffffffffffffffffffffffffffffffffffffff1663a9059cbb33836000604051602001526040518363ffffffff167c0100000000000000000000000000000000000000000000000000000000028152600401808373ffffffffffffffffffffffffffffffffffffffff1673ffffffffffffffffffffffffffffffffffffffff16815260200182815260200192505050602060405180830381600087803b151561061157600080fd5b6102c65a03f1151561062257600080fd5b50505060405180519050151561063757600080fd5b6000821115610681573373ffffffffffffffffffffffffffffffffffffffff166108fc839081150290604051600060405180830381858888f19350505050151561068057600080fd5b5b828415153373ffffffffffffffffffffffffffffffffffffffff167f38734c334284a87a4cb1a00fd6baa2319ee473fb73b9d41272227f238ae87dfd8486604051808381526020018281526020019250505060405180910390a4505050505050005b34156106ee57600080fd5b6106f6610f2a565b6040518082815260200191505060405180910390f35b341561071757600080fd5b61071f610f30565b6040518082815260200191505060405180910390f35b341561074057600080fd5b610748610f37565b6040518082815260200191505060405180910390f35b341561076957600080fd5b610771610f3d565b6040518082815260200191505060405180910390f35b341561079257600080fd5b61079a610f43565b6040518082815260200191505060405180910390f35b34156107bb57600080fd5b6107d16004808035906020019091905050610f50565b005b34156107de57600080fd5b6107f46004808035906020019091905050610ee3565b6040518082815260200191505060405180910390f35b341561081557600080fd5b61081d611059565b6040518082815260200191505060405180910390f35b341561083e57600080fd5b61086a600480803573ffffffffffffffffffffffffffffffffffffffff16906020019091905050610e56565b604051808215151515815260200191505060405180910390f35b341561088f57600080fd5b6108a5600480803590602001909190505061105f565b005b34156108b257600080fd5b6108ba611069565b005b34156108c757600080fd5b6108cf611128565b6040518082815260200191505060405180910390f35b34156108f057600080fd5b6108f8611135565b6040518082815260200191505060405180910390f35b341561091957600080fd5b610921611143565b604051808273ffffffffffffffffffffffffffffffffffffffff1673ffffffffffffffffffffffffffffffffffffffff16815260200191505060405180910390f35b341561096e57600080fd5b610976611169565b6040518082815260200191505060405180910390f35b341561099757600080fd5b6109e4600480803590602001908201803590602001908080602002602001604051908101604052809392919081815260200183836020028082843782019150505050505091905050611171565b604051808215151515815260200191505060405180910390f35b3415610a0957600080fd5b610a11611327565b6040518082815260200191505060405180910390f35b3415610a3257600080fd5b610a3a61132d565b604051808215151515815260200191505060405180910390f35b3415610a5f57600080fd5b610a67611340565b6040518082815260200191505060405180910390f35b3415610a8857600080fd5b610a90611347565b6040518082815260200191505060405180910390f35b3415610ab157600080fd5b610ab9611354565b6040518082815260200191505060405180910390f35b3415610ada57600080fd5b610ae261135b565b6040518082815260200191505060405180910390f35b3415610b0357600080fd5b610b50600480803590602001908201803590602001908080602002602001604051908101604052809392919081815260200183836020028082843782019150505050505091905050611367565b604051808215151515815260200191505060405180910390f35b3415610b7557600080fd5b610b7d61151e565b005b3415610b8a57600080fd5b610b926115de565b6040518082815260200191505060405180910390f35b3415610bb357600080fd5b610bbb6115e4565b604051808273ffffffffffffffffffffffffffffffffffffffff1673ffffffffffffffffffffffffffffffffffffffff16815260200191505060405180910390f35b3415610c0857600080fd5b610c34600480803573ffffffffffffffffffffffffffffffffffffffff16906020019091905050611609565b6040518082815260200191505060405180910390f35b3415610c5557600080fd5b610c5d611621565b6040518082815260200191505060405180910390f35b3415610c7e57600080fd5b610c946004808035906020019091905050610e05565b6040518082815260200191505060405180910390f35b3415610cb557600080fd5b610cbd611627565b6040518082815260200191505060405180910390f35b3415610cde57600080fd5b610ce661162d565b6040518082815260200191505060405180910390f35b3415610d0757600080fd5b610d0f610dfb565b6040518082815260200191505060405180910390f35b3415610d3057600080fd5b610d5c600480803573ffffffffffffffffffffffffffffffffffffffff16906020019091905050611633565b604051808215151515815260200191505060405180910390f35b3415610d8157600080fd5b610d89611653565b6040518082815260200191505060405180910390f35b3415610daa57600080fd5b610dc0600480803590602001909190505061165c565b005b3415610dcd57600080fd5b610df9600480803573ffffffffffffffffffffffffffffffffffffffff169060200190919050506116e7565b005b6000600854905090565b6000610e36600254610e2884670de0b6b3a764000061183c90919063ffffffff16565b61187790919063ffffffff16565b9050919050565b6000828211151515610e4b57fe5b818303905092915050565b6000600460008373ffffffffffffffffffffffffffffffffffffffff1673ffffffffffffffffffffffffffffffffffffffff16815260200190815260200160002060009054906101000a900460ff169050919050565b6000818310610ebb5781610ebd565b825b905092915050565b6000808284019050838110151515610ed957fe5b8091505092915050565b6000610f23600154610f1584610f07620f424060025461183c90919063ffffffff16565b61183c90919063ffffffff16565b61187790919063ffffffff16565b9050919050565b60025481565b6216e36081565b6105dc81565b61339081565b6224ea00635a33d5600181565b6000809054906101000a900473ffffffffffffffffffffffffffffffffffffffff1673ffffffffffffffffffffffffffffffffffffffff163373ffffffffffffffffffffffffffffffffffffffff16141515610fab57600080fd5b3373ffffffffffffffffffffffffffffffffffffffff166108fc829081150290604051600060405180830381858888f193505050501515610feb57600080fd5b7fbace9fd79d5ea02ed8b43fa96af07e4e8f859a2f71ff878c748f5c22c57802843382604051808373ffffffffffffffffffffffffffffffffffffffff1673ffffffffffffffffffffffffffffffffffffffff1681526020018281526020019250505060405180910390a150565b60075481565b8060088190555050565b6000809054906101000a900473ffffffffffffffffffffffffffffffffffffffff1673ffffffffffffffffffffffffffffffffffffffff163373ffffffffffffffffffffffffffffffffffffffff161415156110c457600080fd5b600560009054906101000a900460ff1615156110df57600080fd5b6000600560006101000a81548160ff0219169083151502179055507f7805862f689e2f13df9f062ff482ad3ad112aca9e0847911ed832e158c525b3360405160405180910390a1565b6202a300635a33d5600181565b6302bd5e00635a33d5600181565b600560019054906101000a900473ffffffffffffffffffffffffffffffffffffffff1681565b635a33d56081565b6000806000809054906101000a900473ffffffffffffffffffffffffffffffffffffffff1673ffffffffffffffffffffffffffffffffffffffff163373ffffffffffffffffffffffffffffffffffffffff161415156111cf57600080fd5b600090505b825181101561131d576004600084838151811015156111ef57fe5b9060200190602002015173ffffffffffffffffffffffffffffffffffffffff1673ffffffffffffffffffffffffffffffffffffffff16815260200190815260200160002060009054906101000a900460ff161561131057600060046000858481518110151561125a57fe5b9060200190602002015173ffffffffffffffffffffffffffffffffffffffff1673ffffffffffffffffffffffffffffffffffffffff16815260200190815260200160002060006101000a81548160ff02191690831515021790555082818151811015156112c357fe5b9060200190602002015173ffffffffffffffffffffffffffffffffffffffff167f63ed6d5de83b65405e74e66aea9f7df2c26bfac71b55f5d75ec5f85930c3520e60405160405180910390a25b80806001019150506111d4565b6001915050919050565b60035481565b600560009054906101000a900460ff1681565b6207a12081565b62015180635a33d5600181565b620f424081565b670de0b6b3a764000081565b6000806000809054906101000a900473ffffffffffffffffffffffffffffffffffffffff1673ffffffffffffffffffffffffffffffffffffffff163373ffffffffffffffffffffffffffffffffffffffff161415156113c557600080fd5b600090505b8251811015611514576004600084838151811015156113e557fe5b9060200190602002015173ffffffffffffffffffffffffffffffffffffffff1673ffffffffffffffffffffffffffffffffffffffff16815260200190815260200160002060009054906101000a900460ff16151561150757600160046000858481518110151561145157fe5b9060200190602002015173ffffffffffffffffffffffffffffffffffffffff1673ffffffffffffffffffffffffffffffffffffffff16815260200190815260200160002060006101000a81548160ff02191690831515021790555082818151811015156114ba57fe5b9060200190602002015173ffffffffffffffffffffffffffffffffffffffff167f172960d4eef15ccec151ed01c8488f061df273831457381b8aac30412eada1de60405160405180910390a25b80806001019150506113ca565b6001915050919050565b6000809054906101000a900473ffffffffffffffffffffffffffffffffffffffff1673ffffffffffffffffffffffffffffffffffffffff163373ffffffffffffffffffffffffffffffffffffffff1614151561157957600080fd5b600560009054906101000a900460ff1615151561159557600080fd5b6001600560006101000a81548160ff0219169083151502179055507f6985a02210a168e66602d3235cb6db0e70f92b3ba4d376a33c0f3d9434bff62560405160405180910390a1565b61271081565b6000809054906101000a900473ffffffffffffffffffffffffffffffffffffffff1681565b60066020528060005260406000206000915090505481565b61016381565b60015481565b61407481565b60046020528060005260406000206000915054906101000a900460ff1681565b64104c533c0081565b6000809054906101000a900473ffffffffffffffffffffffffffffffffffffffff1673ffffffffffffffffffffffffffffffffffffffff163373ffffffffffffffffffffffffffffffffffffffff161415156116b757600080fd5b6003546116c2610dfb565b1015156116ce57600080fd5b6000811115156116dd57600080fd5b8060028190555050565b6000809054906101000a900473ffffffffffffffffffffffffffffffffffffffff1673ffffffffffffffffffffffffffffffffffffffff163373ffffffffffffffffffffffffffffffffffffffff1614151561174257600080fd5b600073ffffffffffffffffffffffffffffffffffffffff168173ffffffffffffffffffffffffffffffffffffffff161415151561177e57600080fd5b8073ffffffffffffffffffffffffffffffffffffffff166000809054906101000a900473ffffffffffffffffffffffffffffffffffffffff1673ffffffffffffffffffffffffffffffffffffffff167f8be0079c531659141344cd1fd0a4f28419497f9722a3daafe3b4186f6b6457e060405160405180910390a3806000806101000a81548173ffffffffffffffffffffffffffffffffffffffff021916908373ffffffffffffffffffffffffffffffffffffffff16021790555050565b60008060008414156118515760009150611870565b828402905082848281151561186257fe5b0414151561186c57fe5b8091505b5092915050565b600080828481151561188557fe5b04905080915050929150505600a165627a7a723058202ff1d8cc8ad4d09bccd92d020d377e3fb82de0196b04583430d830596ea078b60029",
  "source": "pragma solidity ^0.4.18;\n\n\nimport '../Bounty0xCrowdsale.sol';\nimport './MockKnowsTime.sol';\n\n\n// Mock presale contract used for testing the presale distributor\ncontract MockBounty0xCrowdsale is Bounty0xCrowdsale, MockKnowsTime {\n    function MockBounty0xCrowdsale(Bounty0xToken _bounty0xToken, uint _USDEtherPrice)\n        Bounty0xCrowdsale(_bounty0xToken, _USDEtherPrice)\n        public\n    {\n    }\n}\n",
  "sourcePath": "/Users/denizdalkilic/Documents/Blockchain/Bounty0x/Bounty0xTokenSale/contracts/mocks/MockBounty0xCrowdsale.sol",
  "compiler": {
    "name": "solc",
    "version": "0.4.18+commit.9cf6e910.Emscripten.clang"
  },
  "schemaVersion": "1.0.1",
  "updatedAt": "2017-12-15T09:52:09.195Z"
}